{
  "_format": "hh-sol-artifact-1",
  "contractName": "MintNFT",
  "sourceName": "contracts/MintNFT.sol",
  "abi": [
    {
      "inputs": [],
      "stateMutability": "nonpayable",
      "type": "constructor"
    },
    {
      "anonymous": false,
      "inputs": [
        {
          "indexed": true,
          "internalType": "address",
          "name": "owner",
          "type": "address"
        },
        {
          "indexed": true,
          "internalType": "address",
          "name": "approved",
          "type": "address"
        },
        {
          "indexed": true,
          "internalType": "uint256",
          "name": "tokenId",
          "type": "uint256"
        }
      ],
      "name": "Approval",
      "type": "event"
    },
    {
      "anonymous": false,
      "inputs": [
        {
          "indexed": true,
          "internalType": "address",
          "name": "owner",
          "type": "address"
        },
        {
          "indexed": true,
          "internalType": "address",
          "name": "operator",
          "type": "address"
        },
        {
          "indexed": false,
          "internalType": "bool",
          "name": "approved",
          "type": "bool"
        }
      ],
      "name": "ApprovalForAll",
      "type": "event"
    },
    {
      "anonymous": false,
      "inputs": [
        {
          "indexed": true,
          "internalType": "address",
          "name": "previousOwner",
          "type": "address"
        },
        {
          "indexed": true,
          "internalType": "address",
          "name": "newOwner",
          "type": "address"
        }
      ],
      "name": "OwnershipTransferred",
      "type": "event"
    },
    {
      "anonymous": false,
      "inputs": [
        {
          "indexed": true,
          "internalType": "address",
          "name": "from",
          "type": "address"
        },
        {
          "indexed": true,
          "internalType": "address",
          "name": "to",
          "type": "address"
        },
        {
          "indexed": true,
          "internalType": "uint256",
          "name": "tokenId",
          "type": "uint256"
        }
      ],
      "name": "Transfer",
      "type": "event"
    },
    {
      "inputs": [
        {
          "internalType": "address",
          "name": "to",
          "type": "address"
        },
        {
          "internalType": "uint256",
          "name": "tokenId",
          "type": "uint256"
        }
      ],
      "name": "approve",
      "outputs": [],
      "stateMutability": "nonpayable",
      "type": "function"
    },
    {
      "inputs": [
        {
          "internalType": "address",
          "name": "owner",
          "type": "address"
        }
      ],
      "name": "balanceOf",
      "outputs": [
        {
          "internalType": "uint256",
          "name": "",
          "type": "uint256"
        }
      ],
      "stateMutability": "view",
      "type": "function"
    },
    {
      "inputs": [
        {
          "internalType": "uint256",
          "name": "tokenId",
          "type": "uint256"
        }
      ],
      "name": "getApproved",
      "outputs": [
        {
          "internalType": "address",
          "name": "",
          "type": "address"
        }
      ],
      "stateMutability": "view",
      "type": "function"
    },
    {
      "inputs": [
        {
          "internalType": "address",
          "name": "owner",
          "type": "address"
        },
        {
          "internalType": "address",
          "name": "operator",
          "type": "address"
        }
      ],
      "name": "isApprovedForAll",
      "outputs": [
        {
          "internalType": "bool",
          "name": "",
          "type": "bool"
        }
      ],
      "stateMutability": "view",
      "type": "function"
    },
    {
      "inputs": [],
      "name": "name",
      "outputs": [
        {
          "internalType": "string",
          "name": "",
          "type": "string"
        }
      ],
      "stateMutability": "view",
      "type": "function"
    },
    {
      "inputs": [],
      "name": "owner",
      "outputs": [
        {
          "internalType": "address",
          "name": "",
          "type": "address"
        }
      ],
      "stateMutability": "view",
      "type": "function"
    },
    {
      "inputs": [
        {
          "internalType": "uint256",
          "name": "tokenId",
          "type": "uint256"
        }
      ],
      "name": "ownerOf",
      "outputs": [
        {
          "internalType": "address",
          "name": "",
          "type": "address"
        }
      ],
      "stateMutability": "view",
      "type": "function"
    },
    {
      "inputs": [],
      "name": "renounceOwnership",
      "outputs": [],
      "stateMutability": "nonpayable",
      "type": "function"
    },
    {
      "inputs": [],
      "name": "safeMint",
      "outputs": [],
      "stateMutability": "nonpayable",
      "type": "function"
    },
    {
      "inputs": [
        {
          "internalType": "address",
          "name": "from",
          "type": "address"
        },
        {
          "internalType": "address",
          "name": "to",
          "type": "address"
        },
        {
          "internalType": "uint256",
          "name": "tokenId",
          "type": "uint256"
        }
      ],
      "name": "safeTransferFrom",
      "outputs": [],
      "stateMutability": "nonpayable",
      "type": "function"
    },
    {
      "inputs": [
        {
          "internalType": "address",
          "name": "from",
          "type": "address"
        },
        {
          "internalType": "address",
          "name": "to",
          "type": "address"
        },
        {
          "internalType": "uint256",
          "name": "tokenId",
          "type": "uint256"
        },
        {
          "internalType": "bytes",
          "name": "data",
          "type": "bytes"
        }
      ],
      "name": "safeTransferFrom",
      "outputs": [],
      "stateMutability": "nonpayable",
      "type": "function"
    },
    {
      "inputs": [
        {
          "internalType": "address",
          "name": "operator",
          "type": "address"
        },
        {
          "internalType": "bool",
          "name": "approved",
          "type": "bool"
        }
      ],
      "name": "setApprovalForAll",
      "outputs": [],
      "stateMutability": "nonpayable",
      "type": "function"
    },
    {
      "inputs": [
        {
          "internalType": "bytes4",
          "name": "interfaceId",
          "type": "bytes4"
        }
      ],
      "name": "supportsInterface",
      "outputs": [
        {
          "internalType": "bool",
          "name": "",
          "type": "bool"
        }
      ],
      "stateMutability": "view",
      "type": "function"
    },
    {
      "inputs": [],
      "name": "symbol",
      "outputs": [
        {
          "internalType": "string",
          "name": "",
          "type": "string"
        }
      ],
      "stateMutability": "view",
      "type": "function"
    },
    {
      "inputs": [
        {
          "internalType": "uint256",
          "name": "tokenId",
          "type": "uint256"
        }
      ],
      "name": "tokenURI",
      "outputs": [
        {
          "internalType": "string",
          "name": "",
          "type": "string"
        }
      ],
      "stateMutability": "view",
      "type": "function"
    },
    {
      "inputs": [
        {
          "internalType": "address",
          "name": "from",
          "type": "address"
        },
        {
          "internalType": "address",
          "name": "to",
          "type": "address"
        },
        {
          "internalType": "uint256",
          "name": "tokenId",
          "type": "uint256"
        }
      ],
      "name": "transferFrom",
      "outputs": [],
      "stateMutability": "nonpayable",
      "type": "function"
    },
    {
      "inputs": [
        {
          "internalType": "address",
          "name": "newOwner",
          "type": "address"
        }
      ],
      "name": "transferOwnership",
      "outputs": [],
      "stateMutability": "nonpayable",
      "type": "function"
    }
  ],
  "bytecode": "0x60806040523480156200001157600080fd5b506040518060400160405280600c81526020017f506c6f74204f6e204d61727300000000000000000000000000000000000000008152506040518060400160405280600381526020017f504f4d0000000000000000000000000000000000000000000000000000000000815250816000908051906020019062000096929190620001a6565b508060019080519060200190620000af929190620001a6565b505050620000d2620000c6620000d860201b60201c565b620000e060201b60201c565b620002bb565b600033905090565b6000600760009054906101000a900473ffffffffffffffffffffffffffffffffffffffff16905081600760006101000a81548173ffffffffffffffffffffffffffffffffffffffff021916908373ffffffffffffffffffffffffffffffffffffffff1602179055508173ffffffffffffffffffffffffffffffffffffffff168173ffffffffffffffffffffffffffffffffffffffff167f8be0079c531659141344cd1fd0a4f28419497f9722a3daafe3b4186f6b6457e060405160405180910390a35050565b828054620001b49062000256565b90600052602060002090601f016020900481019282620001d8576000855562000224565b82601f10620001f357805160ff191683800117855562000224565b8280016001018555821562000224579182015b828111156200022357825182559160200191906001019062000206565b5b50905062000233919062000237565b5090565b5b808211156200025257600081600090555060010162000238565b5090565b600060028204905060018216806200026f57607f821691505b602082108114156200028657620002856200028c565b5b50919050565b7f4e487b7100000000000000000000000000000000000000000000000000000000600052602260045260246000fd5b6129b380620002cb6000396000f3fe608060405234801561001057600080fd5b506004361061010b5760003560e01c806370a08231116100a2578063a22cb46511610071578063a22cb46514610292578063b88d4fde146102ae578063c87b56dd146102ca578063e985e9c5146102fa578063f2fde38b1461032a5761010b565b806370a082311461021c578063715018a61461024c5780638da5cb5b1461025657806395d89b41146102745761010b565b806323b872dd116100de57806323b872dd146101aa57806342842e0e146101c65780636352211e146101e25780636871ee40146102125761010b565b806301ffc9a71461011057806306fdde0314610140578063081812fc1461015e578063095ea7b31461018e575b600080fd5b61012a60048036038101906101259190611c44565b610346565b6040516101379190611fed565b60405180910390f35b610148610428565b6040516101559190612008565b60405180910390f35b61017860048036038101906101739190611c9e565b6104ba565b6040516101859190611f86565b60405180910390f35b6101a860048036038101906101a39190611c04565b610500565b005b6101c460048036038101906101bf9190611aee565b610618565b005b6101e060048036038101906101db9190611aee565b610678565b005b6101fc60048036038101906101f79190611c9e565b610698565b6040516102099190611f86565b60405180910390f35b61021a61074a565b005b61023660048036038101906102319190611a81565b610777565b60405161024391906121ca565b60405180910390f35b61025461082f565b005b61025e610843565b60405161026b9190611f86565b60405180910390f35b61027c61086d565b6040516102899190612008565b60405180910390f35b6102ac60048036038101906102a79190611bc4565b6108ff565b005b6102c860048036038101906102c39190611b41565b610915565b005b6102e460048036038101906102df9190611c9e565b610977565b6040516102f19190612008565b60405180910390f35b610314600480360381019061030f9190611aae565b610a8a565b6040516103219190611fed565b60405180910390f35b610344600480360381019061033f9190611a81565b610b1e565b005b60007f80ac58cd000000000000000000000000000000000000000000000000000000007bffffffffffffffffffffffffffffffffffffffffffffffffffffffff1916827bffffffffffffffffffffffffffffffffffffffffffffffffffffffff1916148061041157507f5b5e139f000000000000000000000000000000000000000000000000000000007bffffffffffffffffffffffffffffffffffffffffffffffffffffffff1916827bffffffffffffffffffffffffffffffffffffffffffffffffffffffff1916145b80610421575061042082610ba2565b5b9050919050565b606060008054610437906123ef565b80601f0160208091040260200160405190810160405280929190818152602001828054610463906123ef565b80156104b05780601f10610485576101008083540402835291602001916104b0565b820191906000526020600020905b81548152906001019060200180831161049357829003601f168201915b5050505050905090565b60006104c582610c0c565b6004600083815260200190815260200160002060009054906101000a900473ffffffffffffffffffffffffffffffffffffffff169050919050565b600061050b82610698565b90508073ffffffffffffffffffffffffffffffffffffffff168373ffffffffffffffffffffffffffffffffffffffff16141561057c576040517f08c379a00000000000000000000000000000000000000000000000000000000081526004016105739061218a565b60405180910390fd5b8073ffffffffffffffffffffffffffffffffffffffff1661059b610c57565b73ffffffffffffffffffffffffffffffffffffffff1614806105ca57506105c9816105c4610c57565b610a8a565b5b610609576040517f08c379a00000000000000000000000000000000000000000000000000000000081526004016106009061210a565b60405180910390fd5b6106138383610c5f565b505050565b610629610623610c57565b82610d18565b610668576040517f08c379a000000000000000000000000000000000000000000000000000000000815260040161065f906121aa565b60405180910390fd5b610673838383610dad565b505050565b61069383838360405180602001604052806000815250610915565b505050565b6000806002600084815260200190815260200160002060009054906101000a900473ffffffffffffffffffffffffffffffffffffffff169050600073ffffffffffffffffffffffffffffffffffffffff168173ffffffffffffffffffffffffffffffffffffffff161415610741576040517f08c379a00000000000000000000000000000000000000000000000000000000081526004016107389061216a565b60405180910390fd5b80915050919050565b610752611014565b61075c6008611092565b600061076860086110a8565b905061077433826110b6565b50565b60008073ffffffffffffffffffffffffffffffffffffffff168273ffffffffffffffffffffffffffffffffffffffff1614156107e8576040517f08c379a00000000000000000000000000000000000000000000000000000000081526004016107df906120ea565b60405180910390fd5b600360008373ffffffffffffffffffffffffffffffffffffffff1673ffffffffffffffffffffffffffffffffffffffff168152602001908152602001600020549050919050565b610837611014565b61084160006110d4565b565b6000600760009054906101000a900473ffffffffffffffffffffffffffffffffffffffff16905090565b60606001805461087c906123ef565b80601f01602080910402602001604051908101604052809291908181526020018280546108a8906123ef565b80156108f55780601f106108ca576101008083540402835291602001916108f5565b820191906000526020600020905b8154815290600101906020018083116108d857829003601f168201915b5050505050905090565b61091161090a610c57565b838361119a565b5050565b610926610920610c57565b83610d18565b610965576040517f08c379a000000000000000000000000000000000000000000000000000000000815260040161095c906121aa565b60405180910390fd5b61097184848484611307565b50505050565b606061098282610c0c565b60006006600084815260200190815260200160002080546109a2906123ef565b80601f01602080910402602001604051908101604052809291908181526020018280546109ce906123ef565b8015610a1b5780601f106109f057610100808354040283529160200191610a1b565b820191906000526020600020905b8154815290600101906020018083116109fe57829003601f168201915b505050505090506000610a2c611363565b9050600081511415610a42578192505050610a85565b600082511115610a77578082604051602001610a5f929190611f62565b60405160208183030381529060405292505050610a85565b610a808461137a565b925050505b919050565b6000600560008473ffffffffffffffffffffffffffffffffffffffff1673ffffffffffffffffffffffffffffffffffffffff16815260200190815260200160002060008373ffffffffffffffffffffffffffffffffffffffff1673ffffffffffffffffffffffffffffffffffffffff16815260200190815260200160002060009054906101000a900460ff16905092915050565b610b26611014565b600073ffffffffffffffffffffffffffffffffffffffff168173ffffffffffffffffffffffffffffffffffffffff161415610b96576040517f08c379a0000000000000000000000000000000000000000000000000000000008152600401610b8d9061204a565b60405180910390fd5b610b9f816110d4565b50565b60007f01ffc9a7000000000000000000000000000000000000000000000000000000007bffffffffffffffffffffffffffffffffffffffffffffffffffffffff1916827bffffffffffffffffffffffffffffffffffffffffffffffffffffffff1916149050919050565b610c15816113e2565b610c54576040517f08c379a0000000000000000000000000000000000000000000000000000000008152600401610c4b9061216a565b60405180910390fd5b50565b600033905090565b816004600083815260200190815260200160002060006101000a81548173ffffffffffffffffffffffffffffffffffffffff021916908373ffffffffffffffffffffffffffffffffffffffff160217905550808273ffffffffffffffffffffffffffffffffffffffff16610cd283610698565b73ffffffffffffffffffffffffffffffffffffffff167f8c5be1e5ebec7d5bd14f71427d1e84f3dd0314c0f7b2291e5b200ac8c7c3b92560405160405180910390a45050565b600080610d2483610698565b90508073ffffffffffffffffffffffffffffffffffffffff168473ffffffffffffffffffffffffffffffffffffffff161480610d665750610d658185610a8a565b5b80610da457508373ffffffffffffffffffffffffffffffffffffffff16610d8c846104ba565b73ffffffffffffffffffffffffffffffffffffffff16145b91505092915050565b8273ffffffffffffffffffffffffffffffffffffffff16610dcd82610698565b73ffffffffffffffffffffffffffffffffffffffff1614610e23576040517f08c379a0000000000000000000000000000000000000000000000000000000008152600401610e1a9061206a565b60405180910390fd5b600073ffffffffffffffffffffffffffffffffffffffff168273ffffffffffffffffffffffffffffffffffffffff161415610e93576040517f08c379a0000000000000000000000000000000000000000000000000000000008152600401610e8a906120aa565b60405180910390fd5b610e9e83838361144e565b610ea9600082610c5f565b6001600360008573ffffffffffffffffffffffffffffffffffffffff1673ffffffffffffffffffffffffffffffffffffffff1681526020019081526020016000206000828254610ef99190612305565b925050819055506001600360008473ffffffffffffffffffffffffffffffffffffffff1673ffffffffffffffffffffffffffffffffffffffff1681526020019081526020016000206000828254610f50919061227e565b92505081905550816002600083815260200190815260200160002060006101000a81548173ffffffffffffffffffffffffffffffffffffffff021916908373ffffffffffffffffffffffffffffffffffffffff160217905550808273ffffffffffffffffffffffffffffffffffffffff168473ffffffffffffffffffffffffffffffffffffffff167fddf252ad1be2c89b69c2b068fc378daa952ba7f163c4a11628f55a4df523b3ef60405160405180910390a461100f838383611453565b505050565b61101c610c57565b73ffffffffffffffffffffffffffffffffffffffff1661103a610843565b73ffffffffffffffffffffffffffffffffffffffff1614611090576040517f08c379a00000000000000000000000000000000000000000000000000000000081526004016110879061214a565b60405180910390fd5b565b6001816000016000828254019250508190555050565b600081600001549050919050565b6110d0828260405180602001604052806000815250611458565b5050565b6000600760009054906101000a900473ffffffffffffffffffffffffffffffffffffffff16905081600760006101000a81548173ffffffffffffffffffffffffffffffffffffffff021916908373ffffffffffffffffffffffffffffffffffffffff1602179055508173ffffffffffffffffffffffffffffffffffffffff168173ffffffffffffffffffffffffffffffffffffffff167f8be0079c531659141344cd1fd0a4f28419497f9722a3daafe3b4186f6b6457e060405160405180910390a35050565b8173ffffffffffffffffffffffffffffffffffffffff168373ffffffffffffffffffffffffffffffffffffffff161415611209576040517f08c379a0000000000000000000000000000000000000000000000000000000008152600401611200906120ca565b60405180910390fd5b80600560008573ffffffffffffffffffffffffffffffffffffffff1673ffffffffffffffffffffffffffffffffffffffff16815260200190815260200160002060008473ffffffffffffffffffffffffffffffffffffffff1673ffffffffffffffffffffffffffffffffffffffff16815260200190815260200160002060006101000a81548160ff0219169083151502179055508173ffffffffffffffffffffffffffffffffffffffff168373ffffffffffffffffffffffffffffffffffffffff167f17307eab39ab6107e8899845ad3d59bd9653f200f220920489ca2b5937696c31836040516112fa9190611fed565b60405180910390a3505050565b611312848484610dad565b61131e848484846114b3565b61135d576040517f08c379a00000000000000000000000000000000000000000000000000000000081526004016113549061202a565b60405180910390fd5b50505050565b606060405180602001604052806000815250905090565b606061138582610c0c565b600061138f611363565b905060008151116113af57604051806020016040528060008152506113da565b806113b98461164a565b6040516020016113ca929190611f62565b6040516020818303038152906040525b915050919050565b60008073ffffffffffffffffffffffffffffffffffffffff166002600084815260200190815260200160002060009054906101000a900473ffffffffffffffffffffffffffffffffffffffff1673ffffffffffffffffffffffffffffffffffffffff1614159050919050565b505050565b505050565b61146283836117ab565b61146f60008484846114b3565b6114ae576040517f08c379a00000000000000000000000000000000000000000000000000000000081526004016114a59061202a565b60405180910390fd5b505050565b60006114d48473ffffffffffffffffffffffffffffffffffffffff16611985565b1561163d578373ffffffffffffffffffffffffffffffffffffffff1663150b7a026114fd610c57565b8786866040518563ffffffff1660e01b815260040161151f9493929190611fa1565b602060405180830381600087803b15801561153957600080fd5b505af192505050801561156a57506040513d601f19601f820116820180604052508101906115679190611c71565b60015b6115ed573d806000811461159a576040519150601f19603f3d011682016040523d82523d6000602084013e61159f565b606091505b506000815114156115e5576040517f08c379a00000000000000000000000000000000000000000000000000000000081526004016115dc9061202a565b60405180910390fd5b805181602001fd5b63150b7a0260e01b7bffffffffffffffffffffffffffffffffffffffffffffffffffffffff1916817bffffffffffffffffffffffffffffffffffffffffffffffffffffffff191614915050611642565b600190505b949350505050565b60606000821415611692576040518060400160405280600181526020017f300000000000000000000000000000000000000000000000000000000000000081525090506117a6565b600082905060005b600082146116c45780806116ad90612452565b915050600a826116bd91906122d4565b915061169a565b60008167ffffffffffffffff8111156116e0576116df612588565b5b6040519080825280601f01601f1916602001820160405280156117125781602001600182028036833780820191505090505b5090505b6000851461179f5760018261172b9190612305565b9150600a8561173a919061249b565b6030611746919061227e565b60f81b81838151811061175c5761175b612559565b5b60200101907effffffffffffffffffffffffffffffffffffffffffffffffffffffffffffff1916908160001a905350600a8561179891906122d4565b9450611716565b8093505050505b919050565b600073ffffffffffffffffffffffffffffffffffffffff168273ffffffffffffffffffffffffffffffffffffffff16141561181b576040517f08c379a00000000000000000000000000000000000000000000000000000000081526004016118129061212a565b60405180910390fd5b611824816113e2565b15611864576040517f08c379a000000000000000000000000000000000000000000000000000000000815260040161185b9061208a565b60405180910390fd5b6118706000838361144e565b6001600360008473ffffffffffffffffffffffffffffffffffffffff1673ffffffffffffffffffffffffffffffffffffffff16815260200190815260200160002060008282546118c0919061227e565b92505081905550816002600083815260200190815260200160002060006101000a81548173ffffffffffffffffffffffffffffffffffffffff021916908373ffffffffffffffffffffffffffffffffffffffff160217905550808273ffffffffffffffffffffffffffffffffffffffff16600073ffffffffffffffffffffffffffffffffffffffff167fddf252ad1be2c89b69c2b068fc378daa952ba7f163c4a11628f55a4df523b3ef60405160405180910390a461198160008383611453565b5050565b6000808273ffffffffffffffffffffffffffffffffffffffff163b119050919050565b60006119bb6119b68461220a565b6121e5565b9050828152602081018484840111156119d7576119d66125bc565b5b6119e28482856123ad565b509392505050565b6000813590506119f981612921565b92915050565b600081359050611a0e81612938565b92915050565b600081359050611a238161294f565b92915050565b600081519050611a388161294f565b92915050565b600082601f830112611a5357611a526125b7565b5b8135611a638482602086016119a8565b91505092915050565b600081359050611a7b81612966565b92915050565b600060208284031215611a9757611a966125c6565b5b6000611aa5848285016119ea565b91505092915050565b60008060408385031215611ac557611ac46125c6565b5b6000611ad3858286016119ea565b9250506020611ae4858286016119ea565b9150509250929050565b600080600060608486031215611b0757611b066125c6565b5b6000611b15868287016119ea565b9350506020611b26868287016119ea565b9250506040611b3786828701611a6c565b9150509250925092565b60008060008060808587031215611b5b57611b5a6125c6565b5b6000611b69878288016119ea565b9450506020611b7a878288016119ea565b9350506040611b8b87828801611a6c565b925050606085013567ffffffffffffffff811115611bac57611bab6125c1565b5b611bb887828801611a3e565b91505092959194509250565b60008060408385031215611bdb57611bda6125c6565b5b6000611be9858286016119ea565b9250506020611bfa858286016119ff565b9150509250929050565b60008060408385031215611c1b57611c1a6125c6565b5b6000611c29858286016119ea565b9250506020611c3a85828601611a6c565b9150509250929050565b600060208284031215611c5a57611c596125c6565b5b6000611c6884828501611a14565b91505092915050565b600060208284031215611c8757611c866125c6565b5b6000611c9584828501611a29565b91505092915050565b600060208284031215611cb457611cb36125c6565b5b6000611cc284828501611a6c565b91505092915050565b611cd481612339565b82525050565b611ce38161234b565b82525050565b6000611cf48261223b565b611cfe8185612251565b9350611d0e8185602086016123bc565b611d17816125cb565b840191505092915050565b6000611d2d82612246565b611d378185612262565b9350611d478185602086016123bc565b611d50816125cb565b840191505092915050565b6000611d6682612246565b611d708185612273565b9350611d808185602086016123bc565b80840191505092915050565b6000611d99603283612262565b9150611da4826125dc565b604082019050919050565b6000611dbc602683612262565b9150611dc78261262b565b604082019050919050565b6000611ddf602583612262565b9150611dea8261267a565b604082019050919050565b6000611e02601c83612262565b9150611e0d826126c9565b602082019050919050565b6000611e25602483612262565b9150611e30826126f2565b604082019050919050565b6000611e48601983612262565b9150611e5382612741565b602082019050919050565b6000611e6b602983612262565b9150611e768261276a565b604082019050919050565b6000611e8e603e83612262565b9150611e99826127b9565b604082019050919050565b6000611eb1602083612262565b9150611ebc82612808565b602082019050919050565b6000611ed4602083612262565b9150611edf82612831565b602082019050919050565b6000611ef7601883612262565b9150611f028261285a565b602082019050919050565b6000611f1a602183612262565b9150611f2582612883565b604082019050919050565b6000611f3d602e83612262565b9150611f48826128d2565b604082019050919050565b611f5c816123a3565b82525050565b6000611f6e8285611d5b565b9150611f7a8284611d5b565b91508190509392505050565b6000602082019050611f9b6000830184611ccb565b92915050565b6000608082019050611fb66000830187611ccb565b611fc36020830186611ccb565b611fd06040830185611f53565b8181036060830152611fe28184611ce9565b905095945050505050565b60006020820190506120026000830184611cda565b92915050565b600060208201905081810360008301526120228184611d22565b905092915050565b6000602082019050818103600083015261204381611d8c565b9050919050565b6000602082019050818103600083015261206381611daf565b9050919050565b6000602082019050818103600083015261208381611dd2565b9050919050565b600060208201905081810360008301526120a381611df5565b9050919050565b600060208201905081810360008301526120c381611e18565b9050919050565b600060208201905081810360008301526120e381611e3b565b9050919050565b6000602082019050818103600083015261210381611e5e565b9050919050565b6000602082019050818103600083015261212381611e81565b9050919050565b6000602082019050818103600083015261214381611ea4565b9050919050565b6000602082019050818103600083015261216381611ec7565b9050919050565b6000602082019050818103600083015261218381611eea565b9050919050565b600060208201905081810360008301526121a381611f0d565b9050919050565b600060208201905081810360008301526121c381611f30565b9050919050565b60006020820190506121df6000830184611f53565b92915050565b60006121ef612200565b90506121fb8282612421565b919050565b6000604051905090565b600067ffffffffffffffff82111561222557612224612588565b5b61222e826125cb565b9050602081019050919050565b600081519050919050565b600081519050919050565b600082825260208201905092915050565b600082825260208201905092915050565b600081905092915050565b6000612289826123a3565b9150612294836123a3565b9250827fffffffffffffffffffffffffffffffffffffffffffffffffffffffffffffffff038211156122c9576122c86124cc565b5b828201905092915050565b60006122df826123a3565b91506122ea836123a3565b9250826122fa576122f96124fb565b5b828204905092915050565b6000612310826123a3565b915061231b836123a3565b92508282101561232e5761232d6124cc565b5b828203905092915050565b600061234482612383565b9050919050565b60008115159050919050565b60007fffffffff0000000000000000000000000000000000000000000000000000000082169050919050565b600073ffffffffffffffffffffffffffffffffffffffff82169050919050565b6000819050919050565b82818337600083830152505050565b60005b838110156123da5780820151818401526020810190506123bf565b838111156123e9576000848401525b50505050565b6000600282049050600182168061240757607f821691505b6020821081141561241b5761241a61252a565b5b50919050565b61242a826125cb565b810181811067ffffffffffffffff8211171561244957612448612588565b5b80604052505050565b600061245d826123a3565b91507fffffffffffffffffffffffffffffffffffffffffffffffffffffffffffffffff8214156124905761248f6124cc565b5b600182019050919050565b60006124a6826123a3565b91506124b1836123a3565b9250826124c1576124c06124fb565b5b828206905092915050565b7f4e487b7100000000000000000000000000000000000000000000000000000000600052601160045260246000fd5b7f4e487b7100000000000000000000000000000000000000000000000000000000600052601260045260246000fd5b7f4e487b7100000000000000000000000000000000000000000000000000000000600052602260045260246000fd5b7f4e487b7100000000000000000000000000000000000000000000000000000000600052603260045260246000fd5b7f4e487b7100000000000000000000000000000000000000000000000000000000600052604160045260246000fd5b600080fd5b600080fd5b600080fd5b600080fd5b6000601f19601f8301169050919050565b7f4552433732313a207472616e7366657220746f206e6f6e20455243373231526560008201527f63656976657220696d706c656d656e7465720000000000000000000000000000602082015250565b7f4f776e61626c653a206e6577206f776e657220697320746865207a65726f206160008201527f6464726573730000000000000000000000000000000000000000000000000000602082015250565b7f4552433732313a207472616e736665722066726f6d20696e636f72726563742060008201527f6f776e6572000000000000000000000000000000000000000000000000000000602082015250565b7f4552433732313a20746f6b656e20616c7265616479206d696e74656400000000600082015250565b7f4552433732313a207472616e7366657220746f20746865207a65726f2061646460008201527f7265737300000000000000000000000000000000000000000000000000000000602082015250565b7f4552433732313a20617070726f766520746f2063616c6c657200000000000000600082015250565b7f4552433732313a2061646472657373207a65726f206973206e6f74206120766160008201527f6c6964206f776e65720000000000000000000000000000000000000000000000602082015250565b7f4552433732313a20617070726f76652063616c6c6572206973206e6f7420746f60008201527f6b656e206f776e6572206e6f7220617070726f76656420666f7220616c6c0000602082015250565b7f4552433732313a206d696e7420746f20746865207a65726f2061646472657373600082015250565b7f4f776e61626c653a2063616c6c6572206973206e6f7420746865206f776e6572600082015250565b7f4552433732313a20696e76616c696420746f6b656e2049440000000000000000600082015250565b7f4552433732313a20617070726f76616c20746f2063757272656e74206f776e6560008201527f7200000000000000000000000000000000000000000000000000000000000000602082015250565b7f4552433732313a2063616c6c6572206973206e6f7420746f6b656e206f776e6560008201527f72206e6f7220617070726f766564000000000000000000000000000000000000602082015250565b61292a81612339565b811461293557600080fd5b50565b6129418161234b565b811461294c57600080fd5b50565b61295881612357565b811461296357600080fd5b50565b61296f816123a3565b811461297a57600080fd5b5056fea26469706673582212209900a2e9931a388c9eb83f95cecbca8de15ff95d229313878dacd5683e0c0b9964736f6c63430008070033",
  "linkReferences": {},
  "deployedLinkReferences": {}
}