{
  "_format": "hh-sol-artifact-1",
  "contractName": "MintNFT",
  "sourceName": "contracts/MintNFT.sol",
  "abi": [
    {
      "inputs": [],
      "stateMutability": "nonpayable",
      "type": "constructor"
    },
    {
      "anonymous": false,
      "inputs": [
        {
          "indexed": true,
          "internalType": "address",
          "name": "owner",
          "type": "address"
        },
        {
          "indexed": true,
          "internalType": "address",
          "name": "approved",
          "type": "address"
        },
        {
          "indexed": true,
          "internalType": "uint256",
          "name": "tokenId",
          "type": "uint256"
        }
      ],
      "name": "Approval",
      "type": "event"
    },
    {
      "anonymous": false,
      "inputs": [
        {
          "indexed": true,
          "internalType": "address",
          "name": "owner",
          "type": "address"
        },
        {
          "indexed": true,
          "internalType": "address",
          "name": "operator",
          "type": "address"
        },
        {
          "indexed": false,
          "internalType": "bool",
          "name": "approved",
          "type": "bool"
        }
      ],
      "name": "ApprovalForAll",
      "type": "event"
    },
    {
      "anonymous": false,
      "inputs": [
        {
          "indexed": true,
          "internalType": "address",
          "name": "previousOwner",
          "type": "address"
        },
        {
          "indexed": true,
          "internalType": "address",
          "name": "newOwner",
          "type": "address"
        }
      ],
      "name": "OwnershipTransferred",
      "type": "event"
    },
    {
      "anonymous": false,
      "inputs": [
        {
          "indexed": true,
          "internalType": "address",
          "name": "from",
          "type": "address"
        },
        {
          "indexed": true,
          "internalType": "address",
          "name": "to",
          "type": "address"
        },
        {
          "indexed": true,
          "internalType": "uint256",
          "name": "tokenId",
          "type": "uint256"
        }
      ],
      "name": "Transfer",
      "type": "event"
    },
    {
      "inputs": [
        {
          "internalType": "address",
          "name": "to",
          "type": "address"
        },
        {
          "internalType": "uint256",
          "name": "tokenId",
          "type": "uint256"
        }
      ],
      "name": "approve",
      "outputs": [],
      "stateMutability": "nonpayable",
      "type": "function"
    },
    {
      "inputs": [
        {
          "internalType": "address",
          "name": "owner",
          "type": "address"
        }
      ],
      "name": "balanceOf",
      "outputs": [
        {
          "internalType": "uint256",
          "name": "",
          "type": "uint256"
        }
      ],
      "stateMutability": "view",
      "type": "function"
    },
    {
      "inputs": [
        {
          "internalType": "uint256",
          "name": "tokenId",
          "type": "uint256"
        }
      ],
      "name": "getApproved",
      "outputs": [
        {
          "internalType": "address",
          "name": "",
          "type": "address"
        }
      ],
      "stateMutability": "view",
      "type": "function"
    },
    {
      "inputs": [],
      "name": "getTokenId",
      "outputs": [
        {
          "internalType": "uint256",
          "name": "",
          "type": "uint256"
        }
      ],
      "stateMutability": "nonpayable",
      "type": "function"
    },
    {
      "inputs": [
        {
          "internalType": "address",
          "name": "owner",
          "type": "address"
        },
        {
          "internalType": "address",
          "name": "operator",
          "type": "address"
        }
      ],
      "name": "isApprovedForAll",
      "outputs": [
        {
          "internalType": "bool",
          "name": "",
          "type": "bool"
        }
      ],
      "stateMutability": "view",
      "type": "function"
    },
    {
      "inputs": [],
      "name": "name",
      "outputs": [
        {
          "internalType": "string",
          "name": "",
          "type": "string"
        }
      ],
      "stateMutability": "view",
      "type": "function"
    },
    {
      "inputs": [],
      "name": "owner",
      "outputs": [
        {
          "internalType": "address",
          "name": "",
          "type": "address"
        }
      ],
      "stateMutability": "view",
      "type": "function"
    },
    {
      "inputs": [
        {
          "internalType": "uint256",
          "name": "tokenId",
          "type": "uint256"
        }
      ],
      "name": "ownerOf",
      "outputs": [
        {
          "internalType": "address",
          "name": "",
          "type": "address"
        }
      ],
      "stateMutability": "view",
      "type": "function"
    },
    {
      "inputs": [],
      "name": "renounceOwnership",
      "outputs": [],
      "stateMutability": "nonpayable",
      "type": "function"
    },
    {
      "inputs": [],
      "name": "safeMint",
      "outputs": [],
      "stateMutability": "nonpayable",
      "type": "function"
    },
    {
      "inputs": [
        {
          "internalType": "address",
          "name": "from",
          "type": "address"
        },
        {
          "internalType": "address",
          "name": "to",
          "type": "address"
        },
        {
          "internalType": "uint256",
          "name": "tokenId",
          "type": "uint256"
        }
      ],
      "name": "safeTransferFrom",
      "outputs": [],
      "stateMutability": "nonpayable",
      "type": "function"
    },
    {
      "inputs": [
        {
          "internalType": "address",
          "name": "from",
          "type": "address"
        },
        {
          "internalType": "address",
          "name": "to",
          "type": "address"
        },
        {
          "internalType": "uint256",
          "name": "tokenId",
          "type": "uint256"
        },
        {
          "internalType": "bytes",
          "name": "data",
          "type": "bytes"
        }
      ],
      "name": "safeTransferFrom",
      "outputs": [],
      "stateMutability": "nonpayable",
      "type": "function"
    },
    {
      "inputs": [
        {
          "internalType": "address",
          "name": "operator",
          "type": "address"
        },
        {
          "internalType": "bool",
          "name": "approved",
          "type": "bool"
        }
      ],
      "name": "setApprovalForAll",
      "outputs": [],
      "stateMutability": "nonpayable",
      "type": "function"
    },
    {
      "inputs": [
        {
          "internalType": "bytes4",
          "name": "interfaceId",
          "type": "bytes4"
        }
      ],
      "name": "supportsInterface",
      "outputs": [
        {
          "internalType": "bool",
          "name": "",
          "type": "bool"
        }
      ],
      "stateMutability": "view",
      "type": "function"
    },
    {
      "inputs": [],
      "name": "symbol",
      "outputs": [
        {
          "internalType": "string",
          "name": "",
          "type": "string"
        }
      ],
      "stateMutability": "view",
      "type": "function"
    },
    {
      "inputs": [],
      "name": "tokenId",
      "outputs": [
        {
          "internalType": "uint256",
          "name": "",
          "type": "uint256"
        }
      ],
      "stateMutability": "view",
      "type": "function"
    },
    {
      "inputs": [
        {
          "internalType": "uint256",
          "name": "tokenId",
          "type": "uint256"
        }
      ],
      "name": "tokenURI",
      "outputs": [
        {
          "internalType": "string",
          "name": "",
          "type": "string"
        }
      ],
      "stateMutability": "view",
      "type": "function"
    },
    {
      "inputs": [
        {
          "internalType": "address",
          "name": "from",
          "type": "address"
        },
        {
          "internalType": "address",
          "name": "to",
          "type": "address"
        },
        {
          "internalType": "uint256",
          "name": "tokenId",
          "type": "uint256"
        }
      ],
      "name": "transferFrom",
      "outputs": [],
      "stateMutability": "nonpayable",
      "type": "function"
    },
    {
      "inputs": [
        {
          "internalType": "address",
          "name": "newOwner",
          "type": "address"
        }
      ],
      "name": "transferOwnership",
      "outputs": [],
      "stateMutability": "nonpayable",
      "type": "function"
    }
  ],
  "bytecode": "0x60806040523480156200001157600080fd5b506040518060400160405280600c81526020017f506c6f74204f6e204d61727300000000000000000000000000000000000000008152506040518060400160405280600381526020017f504f4d0000000000000000000000000000000000000000000000000000000000815250816000908051906020019062000096929190620001a6565b508060019080519060200190620000af929190620001a6565b505050620000d2620000c6620000d860201b60201c565b620000e060201b60201c565b620002bb565b600033905090565b6000600760009054906101000a900473ffffffffffffffffffffffffffffffffffffffff16905081600760006101000a81548173ffffffffffffffffffffffffffffffffffffffff021916908373ffffffffffffffffffffffffffffffffffffffff1602179055508173ffffffffffffffffffffffffffffffffffffffff168173ffffffffffffffffffffffffffffffffffffffff167f8be0079c531659141344cd1fd0a4f28419497f9722a3daafe3b4186f6b6457e060405160405180910390a35050565b828054620001b49062000256565b90600052602060002090601f016020900481019282620001d8576000855562000224565b82601f10620001f357805160ff191683800117855562000224565b8280016001018555821562000224579182015b828111156200022357825182559160200191906001019062000206565b5b50905062000233919062000237565b5090565b5b808211156200025257600081600090555060010162000238565b5090565b600060028204905060018216806200026f57607f821691505b602082108114156200028657620002856200028c565b5b50919050565b7f4e487b7100000000000000000000000000000000000000000000000000000000600052602260045260246000fd5b612a2880620002cb6000396000f3fe608060405234801561001057600080fd5b50600436106101215760003560e01c80636871ee40116100ad578063a22cb46511610071578063a22cb465146102e4578063b88d4fde14610300578063c87b56dd1461031c578063e985e9c51461034c578063f2fde38b1461037c57610121565b80636871ee401461026457806370a082311461026e578063715018a61461029e5780638da5cb5b146102a857806395d89b41146102c657610121565b8063095ea7b3116100f4578063095ea7b3146101c257806317d70f7c146101de57806323b872dd146101fc57806342842e0e146102185780636352211e1461023457610121565b8063010a38f51461012657806301ffc9a71461014457806306fdde0314610174578063081812fc14610192575b600080fd5b61012e610398565b60405161013b919061223f565b60405180910390f35b61015e60048036038101906101599190611cb9565b6103b2565b60405161016b9190612062565b60405180910390f35b61017c610494565b604051610189919061207d565b60405180910390f35b6101ac60048036038101906101a79190611d13565b610526565b6040516101b99190611ffb565b60405180910390f35b6101dc60048036038101906101d79190611c79565b61056c565b005b6101e6610684565b6040516101f3919061223f565b60405180910390f35b61021660048036038101906102119190611b63565b61068a565b005b610232600480360381019061022d9190611b63565b6106ea565b005b61024e60048036038101906102499190611d13565b61070a565b60405161025b9190611ffb565b60405180910390f35b61026c6107bc565b005b61028860048036038101906102839190611af6565b6107ec565b604051610295919061223f565b60405180910390f35b6102a66108a4565b005b6102b06108b8565b6040516102bd9190611ffb565b60405180910390f35b6102ce6108e2565b6040516102db919061207d565b60405180910390f35b6102fe60048036038101906102f99190611c39565b610974565b005b61031a60048036038101906103159190611bb6565b61098a565b005b61033660048036038101906103319190611d13565b6109ec565b604051610343919061207d565b60405180910390f35b61036660048036038101906103619190611b23565b610aff565b6040516103739190612062565b60405180910390f35b61039660048036038101906103919190611af6565b610b93565b005b60006103a46008610c17565b600981905550600954905090565b60007f80ac58cd000000000000000000000000000000000000000000000000000000007bffffffffffffffffffffffffffffffffffffffffffffffffffffffff1916827bffffffffffffffffffffffffffffffffffffffffffffffffffffffff1916148061047d57507f5b5e139f000000000000000000000000000000000000000000000000000000007bffffffffffffffffffffffffffffffffffffffffffffffffffffffff1916827bffffffffffffffffffffffffffffffffffffffffffffffffffffffff1916145b8061048d575061048c82610c25565b5b9050919050565b6060600080546104a390612464565b80601f01602080910402602001604051908101604052809291908181526020018280546104cf90612464565b801561051c5780601f106104f15761010080835404028352916020019161051c565b820191906000526020600020905b8154815290600101906020018083116104ff57829003601f168201915b5050505050905090565b600061053182610c8f565b6004600083815260200190815260200160002060009054906101000a900473ffffffffffffffffffffffffffffffffffffffff169050919050565b60006105778261070a565b90508073ffffffffffffffffffffffffffffffffffffffff168373ffffffffffffffffffffffffffffffffffffffff1614156105e8576040517f08c379a00000000000000000000000000000000000000000000000000000000081526004016105df906121ff565b60405180910390fd5b8073ffffffffffffffffffffffffffffffffffffffff16610607610cda565b73ffffffffffffffffffffffffffffffffffffffff161480610636575061063581610630610cda565b610aff565b5b610675576040517f08c379a000000000000000000000000000000000000000000000000000000000815260040161066c9061217f565b60405180910390fd5b61067f8383610ce2565b505050565b60095481565b61069b610695610cda565b82610d9b565b6106da576040517f08c379a00000000000000000000000000000000000000000000000000000000081526004016106d19061221f565b60405180910390fd5b6106e5838383610e30565b505050565b6107058383836040518060200160405280600081525061098a565b505050565b6000806002600084815260200190815260200160002060009054906101000a900473ffffffffffffffffffffffffffffffffffffffff169050600073ffffffffffffffffffffffffffffffffffffffff168173ffffffffffffffffffffffffffffffffffffffff1614156107b3576040517f08c379a00000000000000000000000000000000000000000000000000000000081526004016107aa906121df565b60405180910390fd5b80915050919050565b6107c4611097565b6107ce6008611115565b6107d86008610c17565b6009819055506107ea3360095461112b565b565b60008073ffffffffffffffffffffffffffffffffffffffff168273ffffffffffffffffffffffffffffffffffffffff16141561085d576040517f08c379a00000000000000000000000000000000000000000000000000000000081526004016108549061215f565b60405180910390fd5b600360008373ffffffffffffffffffffffffffffffffffffffff1673ffffffffffffffffffffffffffffffffffffffff168152602001908152602001600020549050919050565b6108ac611097565b6108b66000611149565b565b6000600760009054906101000a900473ffffffffffffffffffffffffffffffffffffffff16905090565b6060600180546108f190612464565b80601f016020809104026020016040519081016040528092919081815260200182805461091d90612464565b801561096a5780601f1061093f5761010080835404028352916020019161096a565b820191906000526020600020905b81548152906001019060200180831161094d57829003601f168201915b5050505050905090565b61098661097f610cda565b838361120f565b5050565b61099b610995610cda565b83610d9b565b6109da576040517f08c379a00000000000000000000000000000000000000000000000000000000081526004016109d19061221f565b60405180910390fd5b6109e68484848461137c565b50505050565b60606109f782610c8f565b6000600660008481526020019081526020016000208054610a1790612464565b80601f0160208091040260200160405190810160405280929190818152602001828054610a4390612464565b8015610a905780601f10610a6557610100808354040283529160200191610a90565b820191906000526020600020905b815481529060010190602001808311610a7357829003601f168201915b505050505090506000610aa16113d8565b9050600081511415610ab7578192505050610afa565b600082511115610aec578082604051602001610ad4929190611fd7565b60405160208183030381529060405292505050610afa565b610af5846113ef565b925050505b919050565b6000600560008473ffffffffffffffffffffffffffffffffffffffff1673ffffffffffffffffffffffffffffffffffffffff16815260200190815260200160002060008373ffffffffffffffffffffffffffffffffffffffff1673ffffffffffffffffffffffffffffffffffffffff16815260200190815260200160002060009054906101000a900460ff16905092915050565b610b9b611097565b600073ffffffffffffffffffffffffffffffffffffffff168173ffffffffffffffffffffffffffffffffffffffff161415610c0b576040517f08c379a0000000000000000000000000000000000000000000000000000000008152600401610c02906120bf565b60405180910390fd5b610c1481611149565b50565b600081600001549050919050565b60007f01ffc9a7000000000000000000000000000000000000000000000000000000007bffffffffffffffffffffffffffffffffffffffffffffffffffffffff1916827bffffffffffffffffffffffffffffffffffffffffffffffffffffffff1916149050919050565b610c9881611457565b610cd7576040517f08c379a0000000000000000000000000000000000000000000000000000000008152600401610cce906121df565b60405180910390fd5b50565b600033905090565b816004600083815260200190815260200160002060006101000a81548173ffffffffffffffffffffffffffffffffffffffff021916908373ffffffffffffffffffffffffffffffffffffffff160217905550808273ffffffffffffffffffffffffffffffffffffffff16610d558361070a565b73ffffffffffffffffffffffffffffffffffffffff167f8c5be1e5ebec7d5bd14f71427d1e84f3dd0314c0f7b2291e5b200ac8c7c3b92560405160405180910390a45050565b600080610da78361070a565b90508073ffffffffffffffffffffffffffffffffffffffff168473ffffffffffffffffffffffffffffffffffffffff161480610de95750610de88185610aff565b5b80610e2757508373ffffffffffffffffffffffffffffffffffffffff16610e0f84610526565b73ffffffffffffffffffffffffffffffffffffffff16145b91505092915050565b8273ffffffffffffffffffffffffffffffffffffffff16610e508261070a565b73ffffffffffffffffffffffffffffffffffffffff1614610ea6576040517f08c379a0000000000000000000000000000000000000000000000000000000008152600401610e9d906120df565b60405180910390fd5b600073ffffffffffffffffffffffffffffffffffffffff168273ffffffffffffffffffffffffffffffffffffffff161415610f16576040517f08c379a0000000000000000000000000000000000000000000000000000000008152600401610f0d9061211f565b60405180910390fd5b610f218383836114c3565b610f2c600082610ce2565b6001600360008573ffffffffffffffffffffffffffffffffffffffff1673ffffffffffffffffffffffffffffffffffffffff1681526020019081526020016000206000828254610f7c919061237a565b925050819055506001600360008473ffffffffffffffffffffffffffffffffffffffff1673ffffffffffffffffffffffffffffffffffffffff1681526020019081526020016000206000828254610fd391906122f3565b92505081905550816002600083815260200190815260200160002060006101000a81548173ffffffffffffffffffffffffffffffffffffffff021916908373ffffffffffffffffffffffffffffffffffffffff160217905550808273ffffffffffffffffffffffffffffffffffffffff168473ffffffffffffffffffffffffffffffffffffffff167fddf252ad1be2c89b69c2b068fc378daa952ba7f163c4a11628f55a4df523b3ef60405160405180910390a46110928383836114c8565b505050565b61109f610cda565b73ffffffffffffffffffffffffffffffffffffffff166110bd6108b8565b73ffffffffffffffffffffffffffffffffffffffff1614611113576040517f08c379a000000000000000000000000000000000000000000000000000000000815260040161110a906121bf565b60405180910390fd5b565b6001816000016000828254019250508190555050565b6111458282604051806020016040528060008152506114cd565b5050565b6000600760009054906101000a900473ffffffffffffffffffffffffffffffffffffffff16905081600760006101000a81548173ffffffffffffffffffffffffffffffffffffffff021916908373ffffffffffffffffffffffffffffffffffffffff1602179055508173ffffffffffffffffffffffffffffffffffffffff168173ffffffffffffffffffffffffffffffffffffffff167f8be0079c531659141344cd1fd0a4f28419497f9722a3daafe3b4186f6b6457e060405160405180910390a35050565b8173ffffffffffffffffffffffffffffffffffffffff168373ffffffffffffffffffffffffffffffffffffffff16141561127e576040517f08c379a00000000000000000000000000000000000000000000000000000000081526004016112759061213f565b60405180910390fd5b80600560008573ffffffffffffffffffffffffffffffffffffffff1673ffffffffffffffffffffffffffffffffffffffff16815260200190815260200160002060008473ffffffffffffffffffffffffffffffffffffffff1673ffffffffffffffffffffffffffffffffffffffff16815260200190815260200160002060006101000a81548160ff0219169083151502179055508173ffffffffffffffffffffffffffffffffffffffff168373ffffffffffffffffffffffffffffffffffffffff167f17307eab39ab6107e8899845ad3d59bd9653f200f220920489ca2b5937696c318360405161136f9190612062565b60405180910390a3505050565b611387848484610e30565b61139384848484611528565b6113d2576040517f08c379a00000000000000000000000000000000000000000000000000000000081526004016113c99061209f565b60405180910390fd5b50505050565b606060405180602001604052806000815250905090565b60606113fa82610c8f565b60006114046113d8565b90506000815111611424576040518060200160405280600081525061144f565b8061142e846116bf565b60405160200161143f929190611fd7565b6040516020818303038152906040525b915050919050565b60008073ffffffffffffffffffffffffffffffffffffffff166002600084815260200190815260200160002060009054906101000a900473ffffffffffffffffffffffffffffffffffffffff1673ffffffffffffffffffffffffffffffffffffffff1614159050919050565b505050565b505050565b6114d78383611820565b6114e46000848484611528565b611523576040517f08c379a000000000000000000000000000000000000000000000000000000000815260040161151a9061209f565b60405180910390fd5b505050565b60006115498473ffffffffffffffffffffffffffffffffffffffff166119fa565b156116b2578373ffffffffffffffffffffffffffffffffffffffff1663150b7a02611572610cda565b8786866040518563ffffffff1660e01b81526004016115949493929190612016565b602060405180830381600087803b1580156115ae57600080fd5b505af19250505080156115df57506040513d601f19601f820116820180604052508101906115dc9190611ce6565b60015b611662573d806000811461160f576040519150601f19603f3d011682016040523d82523d6000602084013e611614565b606091505b5060008151141561165a576040517f08c379a00000000000000000000000000000000000000000000000000000000081526004016116519061209f565b60405180910390fd5b805181602001fd5b63150b7a0260e01b7bffffffffffffffffffffffffffffffffffffffffffffffffffffffff1916817bffffffffffffffffffffffffffffffffffffffffffffffffffffffff1916149150506116b7565b600190505b949350505050565b60606000821415611707576040518060400160405280600181526020017f3000000000000000000000000000000000000000000000000000000000000000815250905061181b565b600082905060005b60008214611739578080611722906124c7565b915050600a826117329190612349565b915061170f565b60008167ffffffffffffffff811115611755576117546125fd565b5b6040519080825280601f01601f1916602001820160405280156117875781602001600182028036833780820191505090505b5090505b60008514611814576001826117a0919061237a565b9150600a856117af9190612510565b60306117bb91906122f3565b60f81b8183815181106117d1576117d06125ce565b5b60200101907effffffffffffffffffffffffffffffffffffffffffffffffffffffffffffff1916908160001a905350600a8561180d9190612349565b945061178b565b8093505050505b919050565b600073ffffffffffffffffffffffffffffffffffffffff168273ffffffffffffffffffffffffffffffffffffffff161415611890576040517f08c379a00000000000000000000000000000000000000000000000000000000081526004016118879061219f565b60405180910390fd5b61189981611457565b156118d9576040517f08c379a00000000000000000000000000000000000000000000000000000000081526004016118d0906120ff565b60405180910390fd5b6118e5600083836114c3565b6001600360008473ffffffffffffffffffffffffffffffffffffffff1673ffffffffffffffffffffffffffffffffffffffff168152602001908152602001600020600082825461193591906122f3565b92505081905550816002600083815260200190815260200160002060006101000a81548173ffffffffffffffffffffffffffffffffffffffff021916908373ffffffffffffffffffffffffffffffffffffffff160217905550808273ffffffffffffffffffffffffffffffffffffffff16600073ffffffffffffffffffffffffffffffffffffffff167fddf252ad1be2c89b69c2b068fc378daa952ba7f163c4a11628f55a4df523b3ef60405160405180910390a46119f6600083836114c8565b5050565b6000808273ffffffffffffffffffffffffffffffffffffffff163b119050919050565b6000611a30611a2b8461227f565b61225a565b905082815260208101848484011115611a4c57611a4b612631565b5b611a57848285612422565b509392505050565b600081359050611a6e81612996565b92915050565b600081359050611a83816129ad565b92915050565b600081359050611a98816129c4565b92915050565b600081519050611aad816129c4565b92915050565b600082601f830112611ac857611ac761262c565b5b8135611ad8848260208601611a1d565b91505092915050565b600081359050611af0816129db565b92915050565b600060208284031215611b0c57611b0b61263b565b5b6000611b1a84828501611a5f565b91505092915050565b60008060408385031215611b3a57611b3961263b565b5b6000611b4885828601611a5f565b9250506020611b5985828601611a5f565b9150509250929050565b600080600060608486031215611b7c57611b7b61263b565b5b6000611b8a86828701611a5f565b9350506020611b9b86828701611a5f565b9250506040611bac86828701611ae1565b9150509250925092565b60008060008060808587031215611bd057611bcf61263b565b5b6000611bde87828801611a5f565b9450506020611bef87828801611a5f565b9350506040611c0087828801611ae1565b925050606085013567ffffffffffffffff811115611c2157611c20612636565b5b611c2d87828801611ab3565b91505092959194509250565b60008060408385031215611c5057611c4f61263b565b5b6000611c5e85828601611a5f565b9250506020611c6f85828601611a74565b9150509250929050565b60008060408385031215611c9057611c8f61263b565b5b6000611c9e85828601611a5f565b9250506020611caf85828601611ae1565b9150509250929050565b600060208284031215611ccf57611cce61263b565b5b6000611cdd84828501611a89565b91505092915050565b600060208284031215611cfc57611cfb61263b565b5b6000611d0a84828501611a9e565b91505092915050565b600060208284031215611d2957611d2861263b565b5b6000611d3784828501611ae1565b91505092915050565b611d49816123ae565b82525050565b611d58816123c0565b82525050565b6000611d69826122b0565b611d7381856122c6565b9350611d83818560208601612431565b611d8c81612640565b840191505092915050565b6000611da2826122bb565b611dac81856122d7565b9350611dbc818560208601612431565b611dc581612640565b840191505092915050565b6000611ddb826122bb565b611de581856122e8565b9350611df5818560208601612431565b80840191505092915050565b6000611e0e6032836122d7565b9150611e1982612651565b604082019050919050565b6000611e316026836122d7565b9150611e3c826126a0565b604082019050919050565b6000611e546025836122d7565b9150611e5f826126ef565b604082019050919050565b6000611e77601c836122d7565b9150611e828261273e565b602082019050919050565b6000611e9a6024836122d7565b9150611ea582612767565b604082019050919050565b6000611ebd6019836122d7565b9150611ec8826127b6565b602082019050919050565b6000611ee06029836122d7565b9150611eeb826127df565b604082019050919050565b6000611f03603e836122d7565b9150611f0e8261282e565b604082019050919050565b6000611f266020836122d7565b9150611f318261287d565b602082019050919050565b6000611f496020836122d7565b9150611f54826128a6565b602082019050919050565b6000611f6c6018836122d7565b9150611f77826128cf565b602082019050919050565b6000611f8f6021836122d7565b9150611f9a826128f8565b604082019050919050565b6000611fb2602e836122d7565b9150611fbd82612947565b604082019050919050565b611fd181612418565b82525050565b6000611fe38285611dd0565b9150611fef8284611dd0565b91508190509392505050565b60006020820190506120106000830184611d40565b92915050565b600060808201905061202b6000830187611d40565b6120386020830186611d40565b6120456040830185611fc8565b81810360608301526120578184611d5e565b905095945050505050565b60006020820190506120776000830184611d4f565b92915050565b600060208201905081810360008301526120978184611d97565b905092915050565b600060208201905081810360008301526120b881611e01565b9050919050565b600060208201905081810360008301526120d881611e24565b9050919050565b600060208201905081810360008301526120f881611e47565b9050919050565b6000602082019050818103600083015261211881611e6a565b9050919050565b6000602082019050818103600083015261213881611e8d565b9050919050565b6000602082019050818103600083015261215881611eb0565b9050919050565b6000602082019050818103600083015261217881611ed3565b9050919050565b6000602082019050818103600083015261219881611ef6565b9050919050565b600060208201905081810360008301526121b881611f19565b9050919050565b600060208201905081810360008301526121d881611f3c565b9050919050565b600060208201905081810360008301526121f881611f5f565b9050919050565b6000602082019050818103600083015261221881611f82565b9050919050565b6000602082019050818103600083015261223881611fa5565b9050919050565b60006020820190506122546000830184611fc8565b92915050565b6000612264612275565b90506122708282612496565b919050565b6000604051905090565b600067ffffffffffffffff82111561229a576122996125fd565b5b6122a382612640565b9050602081019050919050565b600081519050919050565b600081519050919050565b600082825260208201905092915050565b600082825260208201905092915050565b600081905092915050565b60006122fe82612418565b915061230983612418565b9250827fffffffffffffffffffffffffffffffffffffffffffffffffffffffffffffffff0382111561233e5761233d612541565b5b828201905092915050565b600061235482612418565b915061235f83612418565b92508261236f5761236e612570565b5b828204905092915050565b600061238582612418565b915061239083612418565b9250828210156123a3576123a2612541565b5b828203905092915050565b60006123b9826123f8565b9050919050565b60008115159050919050565b60007fffffffff0000000000000000000000000000000000000000000000000000000082169050919050565b600073ffffffffffffffffffffffffffffffffffffffff82169050919050565b6000819050919050565b82818337600083830152505050565b60005b8381101561244f578082015181840152602081019050612434565b8381111561245e576000848401525b50505050565b6000600282049050600182168061247c57607f821691505b602082108114156124905761248f61259f565b5b50919050565b61249f82612640565b810181811067ffffffffffffffff821117156124be576124bd6125fd565b5b80604052505050565b60006124d282612418565b91507fffffffffffffffffffffffffffffffffffffffffffffffffffffffffffffffff82141561250557612504612541565b5b600182019050919050565b600061251b82612418565b915061252683612418565b92508261253657612535612570565b5b828206905092915050565b7f4e487b7100000000000000000000000000000000000000000000000000000000600052601160045260246000fd5b7f4e487b7100000000000000000000000000000000000000000000000000000000600052601260045260246000fd5b7f4e487b7100000000000000000000000000000000000000000000000000000000600052602260045260246000fd5b7f4e487b7100000000000000000000000000000000000000000000000000000000600052603260045260246000fd5b7f4e487b7100000000000000000000000000000000000000000000000000000000600052604160045260246000fd5b600080fd5b600080fd5b600080fd5b600080fd5b6000601f19601f8301169050919050565b7f4552433732313a207472616e7366657220746f206e6f6e20455243373231526560008201527f63656976657220696d706c656d656e7465720000000000000000000000000000602082015250565b7f4f776e61626c653a206e6577206f776e657220697320746865207a65726f206160008201527f6464726573730000000000000000000000000000000000000000000000000000602082015250565b7f4552433732313a207472616e736665722066726f6d20696e636f72726563742060008201527f6f776e6572000000000000000000000000000000000000000000000000000000602082015250565b7f4552433732313a20746f6b656e20616c7265616479206d696e74656400000000600082015250565b7f4552433732313a207472616e7366657220746f20746865207a65726f2061646460008201527f7265737300000000000000000000000000000000000000000000000000000000602082015250565b7f4552433732313a20617070726f766520746f2063616c6c657200000000000000600082015250565b7f4552433732313a2061646472657373207a65726f206973206e6f74206120766160008201527f6c6964206f776e65720000000000000000000000000000000000000000000000602082015250565b7f4552433732313a20617070726f76652063616c6c6572206973206e6f7420746f60008201527f6b656e206f776e6572206e6f7220617070726f76656420666f7220616c6c0000602082015250565b7f4552433732313a206d696e7420746f20746865207a65726f2061646472657373600082015250565b7f4f776e61626c653a2063616c6c6572206973206e6f7420746865206f776e6572600082015250565b7f4552433732313a20696e76616c696420746f6b656e2049440000000000000000600082015250565b7f4552433732313a20617070726f76616c20746f2063757272656e74206f776e6560008201527f7200000000000000000000000000000000000000000000000000000000000000602082015250565b7f4552433732313a2063616c6c6572206973206e6f7420746f6b656e206f776e6560008201527f72206e6f7220617070726f766564000000000000000000000000000000000000602082015250565b61299f816123ae565b81146129aa57600080fd5b50565b6129b6816123c0565b81146129c157600080fd5b50565b6129cd816123cc565b81146129d857600080fd5b50565b6129e481612418565b81146129ef57600080fd5b5056fea2646970667358221220f92e10b8967f1de42a3fa0f57e21a76387b6fe18dcc48ec55cee4472c43318bf64736f6c63430008070033",
  "linkReferences": {},
  "deployedLinkReferences": {}
}