{
  "address": "0x74869262a814cB351D5DB9fD5cDD1C18D158d9c9",
  "abi": [
    {
      "inputs": [
        {
          "internalType": "string[10]",
          "name": "tokenUris",
          "type": "string[10]"
        }
      ],
      "stateMutability": "nonpayable",
      "type": "constructor"
    },
    {
      "anonymous": false,
      "inputs": [
        {
          "indexed": true,
          "internalType": "address",
          "name": "owner",
          "type": "address"
        },
        {
          "indexed": true,
          "internalType": "address",
          "name": "approved",
          "type": "address"
        },
        {
          "indexed": true,
          "internalType": "uint256",
          "name": "tokenId",
          "type": "uint256"
        }
      ],
      "name": "Approval",
      "type": "event"
    },
    {
      "anonymous": false,
      "inputs": [
        {
          "indexed": true,
          "internalType": "address",
          "name": "owner",
          "type": "address"
        },
        {
          "indexed": true,
          "internalType": "address",
          "name": "operator",
          "type": "address"
        },
        {
          "indexed": false,
          "internalType": "bool",
          "name": "approved",
          "type": "bool"
        }
      ],
      "name": "ApprovalForAll",
      "type": "event"
    },
    {
      "anonymous": false,
      "inputs": [
        {
          "indexed": true,
          "internalType": "address",
          "name": "previousOwner",
          "type": "address"
        },
        {
          "indexed": true,
          "internalType": "address",
          "name": "newOwner",
          "type": "address"
        }
      ],
      "name": "OwnershipTransferred",
      "type": "event"
    },
    {
      "anonymous": false,
      "inputs": [
        {
          "indexed": true,
          "internalType": "address",
          "name": "from",
          "type": "address"
        },
        {
          "indexed": true,
          "internalType": "address",
          "name": "to",
          "type": "address"
        },
        {
          "indexed": true,
          "internalType": "uint256",
          "name": "tokenId",
          "type": "uint256"
        }
      ],
      "name": "Transfer",
      "type": "event"
    },
    {
      "inputs": [
        {
          "internalType": "address",
          "name": "to",
          "type": "address"
        },
        {
          "internalType": "uint256",
          "name": "tokenId",
          "type": "uint256"
        }
      ],
      "name": "approve",
      "outputs": [],
      "stateMutability": "nonpayable",
      "type": "function"
    },
    {
      "inputs": [
        {
          "internalType": "address",
          "name": "owner",
          "type": "address"
        }
      ],
      "name": "balanceOf",
      "outputs": [
        {
          "internalType": "uint256",
          "name": "",
          "type": "uint256"
        }
      ],
      "stateMutability": "view",
      "type": "function"
    },
    {
      "inputs": [
        {
          "internalType": "uint256",
          "name": "tokenId",
          "type": "uint256"
        }
      ],
      "name": "getApproved",
      "outputs": [
        {
          "internalType": "address",
          "name": "",
          "type": "address"
        }
      ],
      "stateMutability": "view",
      "type": "function"
    },
    {
      "inputs": [],
      "name": "getTokenId",
      "outputs": [
        {
          "internalType": "uint256",
          "name": "",
          "type": "uint256"
        }
      ],
      "stateMutability": "nonpayable",
      "type": "function"
    },
    {
      "inputs": [
        {
          "internalType": "address",
          "name": "owner",
          "type": "address"
        },
        {
          "internalType": "address",
          "name": "operator",
          "type": "address"
        }
      ],
      "name": "isApprovedForAll",
      "outputs": [
        {
          "internalType": "bool",
          "name": "",
          "type": "bool"
        }
      ],
      "stateMutability": "view",
      "type": "function"
    },
    {
      "inputs": [],
      "name": "name",
      "outputs": [
        {
          "internalType": "string",
          "name": "",
          "type": "string"
        }
      ],
      "stateMutability": "view",
      "type": "function"
    },
    {
      "inputs": [],
      "name": "owner",
      "outputs": [
        {
          "internalType": "address",
          "name": "",
          "type": "address"
        }
      ],
      "stateMutability": "view",
      "type": "function"
    },
    {
      "inputs": [
        {
          "internalType": "uint256",
          "name": "tokenId",
          "type": "uint256"
        }
      ],
      "name": "ownerOf",
      "outputs": [
        {
          "internalType": "address",
          "name": "",
          "type": "address"
        }
      ],
      "stateMutability": "view",
      "type": "function"
    },
    {
      "inputs": [],
      "name": "renounceOwnership",
      "outputs": [],
      "stateMutability": "nonpayable",
      "type": "function"
    },
    {
      "inputs": [],
      "name": "safeMint",
      "outputs": [],
      "stateMutability": "nonpayable",
      "type": "function"
    },
    {
      "inputs": [
        {
          "internalType": "address",
          "name": "from",
          "type": "address"
        },
        {
          "internalType": "address",
          "name": "to",
          "type": "address"
        },
        {
          "internalType": "uint256",
          "name": "tokenId",
          "type": "uint256"
        }
      ],
      "name": "safeTransferFrom",
      "outputs": [],
      "stateMutability": "nonpayable",
      "type": "function"
    },
    {
      "inputs": [
        {
          "internalType": "address",
          "name": "from",
          "type": "address"
        },
        {
          "internalType": "address",
          "name": "to",
          "type": "address"
        },
        {
          "internalType": "uint256",
          "name": "tokenId",
          "type": "uint256"
        },
        {
          "internalType": "bytes",
          "name": "data",
          "type": "bytes"
        }
      ],
      "name": "safeTransferFrom",
      "outputs": [],
      "stateMutability": "nonpayable",
      "type": "function"
    },
    {
      "inputs": [
        {
          "internalType": "address",
          "name": "operator",
          "type": "address"
        },
        {
          "internalType": "bool",
          "name": "approved",
          "type": "bool"
        }
      ],
      "name": "setApprovalForAll",
      "outputs": [],
      "stateMutability": "nonpayable",
      "type": "function"
    },
    {
      "inputs": [
        {
          "internalType": "bytes4",
          "name": "interfaceId",
          "type": "bytes4"
        }
      ],
      "name": "supportsInterface",
      "outputs": [
        {
          "internalType": "bool",
          "name": "",
          "type": "bool"
        }
      ],
      "stateMutability": "view",
      "type": "function"
    },
    {
      "inputs": [],
      "name": "symbol",
      "outputs": [
        {
          "internalType": "string",
          "name": "",
          "type": "string"
        }
      ],
      "stateMutability": "view",
      "type": "function"
    },
    {
      "inputs": [],
      "name": "tokenId",
      "outputs": [
        {
          "internalType": "uint256",
          "name": "",
          "type": "uint256"
        }
      ],
      "stateMutability": "view",
      "type": "function"
    },
    {
      "inputs": [
        {
          "internalType": "uint256",
          "name": "tokenId",
          "type": "uint256"
        }
      ],
      "name": "tokenURI",
      "outputs": [
        {
          "internalType": "string",
          "name": "",
          "type": "string"
        }
      ],
      "stateMutability": "view",
      "type": "function"
    },
    {
      "inputs": [
        {
          "internalType": "address",
          "name": "from",
          "type": "address"
        },
        {
          "internalType": "address",
          "name": "to",
          "type": "address"
        },
        {
          "internalType": "uint256",
          "name": "tokenId",
          "type": "uint256"
        }
      ],
      "name": "transferFrom",
      "outputs": [],
      "stateMutability": "nonpayable",
      "type": "function"
    },
    {
      "inputs": [
        {
          "internalType": "address",
          "name": "newOwner",
          "type": "address"
        }
      ],
      "name": "transferOwnership",
      "outputs": [],
      "stateMutability": "nonpayable",
      "type": "function"
    }
  ],
  "transactionHash": "0xdc2280964d5c48f65f52350d71fecf7e34f26eb45d986e9fba46d04f08542b4f",
  "args": [
    [
      "ipfs://QmaGmVJianGd3wzdfRNFZXWA9UeMdLFMBX5cZZSZjNeckP",
      "ipfs://QmaGV6P2knFkPdStvPsNXjJjehEysfnK7e4tShJAvpuPrx",
      "ipfs://QmcdbzSUFhRF98ppNHf83yhPJ2jHjP5Lpuov9Wzi4aYZF4",
      "ipfs://QmP8W1KEC2td2VPn3tbEYjFBZ2yV6jZh5Fbe2rGjzqCMwS",
      "ipfs://QmdL2QjcLPjd1RLwHK1GNuNQSt5b4ZXupuaGYtUi3Lqqz5",
      "ipfs://QmaJqsMKbFLLTZszY2rprPRncDReLTnhHVdz2U7aScxFNS",
      "ipfs://QmYeioLfMcTUNSABndwqJz7sjaeA7quF1fMGq2tziSE2T3",
      "ipfs://QmW7nRHE7J5L36n9NvxspwNfSbEPRcFvDF4kUkscZHehyZ",
      "ipfs://QmUcCwpskbvQydNa3rcSpCftsPAmBgovn6WnZYTeZw4NpU",
      "ipfs://QmdyTVfRymf2kFrrfdNq2FGHYX4gx5YDT1DvgmkccSee1U"
    ]
  ],
  "numDeployments": 3,
  "solcInputHash": "467c4ebda1fc082277be4ae9aa35866c",
  "bytecode": "0x60806040523480156200001157600080fd5b506040516200333e3803806200333e8339818101604052810190620000379190620004a6565b6040518060400160405280600c81526020017f506c6f74204f6e204d61727300000000000000000000000000000000000000008152506040518060400160405280600381526020017f504f4d00000000000000000000000000000000000000000000000000000000008152508160009080519060200190620000bb929190620001e0565b508060019080519060200190620000d4929190620001e0565b505050620000f7620000eb6200011260201b60201c565b6200011a60201b60201c565b80600990600a6200010a92919062000271565b5050620006a9565b600033905090565b6000600760009054906101000a900473ffffffffffffffffffffffffffffffffffffffff16905081600760006101000a81548173ffffffffffffffffffffffffffffffffffffffff021916908373ffffffffffffffffffffffffffffffffffffffff1602179055508173ffffffffffffffffffffffffffffffffffffffff168173ffffffffffffffffffffffffffffffffffffffff167f8be0079c531659141344cd1fd0a4f28419497f9722a3daafe3b4186f6b6457e060405160405180910390a35050565b828054620001ee90620005b5565b90600052602060002090601f0160209004810192826200021257600085556200025e565b82601f106200022d57805160ff19168380011785556200025e565b828001600101855582156200025e579182015b828111156200025d57825182559160200191906001019062000240565b5b5090506200026d9190620002d8565b5090565b828054828255906000526020600020908101928215620002c5579160200282015b82811115620002c4578251829080519060200190620002b3929190620001e0565b509160200191906001019062000292565b5b509050620002d49190620002f7565b5090565b5b80821115620002f3576000816000905550600101620002d9565b5090565b5b808211156200031b57600081816200031191906200031f565b50600101620002f8565b5090565b5080546200032d90620005b5565b6000825580601f1062000341575062000362565b601f016020900490600052602060002090810190620003619190620002d8565b5b50565b60006200037c620003768462000520565b620004f7565b9050808285602086028201111562000399576200039862000684565b5b60005b85811015620003ee57815167ffffffffffffffff811115620003c357620003c26200067f565b5b808601620003d2898262000473565b855260208501945060208401935050506001810190506200039c565b5050509392505050565b60006200040f620004098462000549565b620004f7565b9050828152602081018484840111156200042e576200042d62000689565b5b6200043b8482856200057f565b509392505050565b600082601f8301126200045b576200045a6200067f565b5b600a6200046a84828562000365565b91505092915050565b600082601f8301126200048b576200048a6200067f565b5b81516200049d848260208601620003f8565b91505092915050565b600060208284031215620004bf57620004be62000693565b5b600082015167ffffffffffffffff811115620004e057620004df6200068e565b5b620004ee8482850162000443565b91505092915050565b60006200050362000516565b9050620005118282620005eb565b919050565b6000604051905090565b600067ffffffffffffffff8211156200053e576200053d62000650565b5b602082029050919050565b600067ffffffffffffffff82111562000567576200056662000650565b5b620005728262000698565b9050602081019050919050565b60005b838110156200059f57808201518184015260208101905062000582565b83811115620005af576000848401525b50505050565b60006002820490506001821680620005ce57607f821691505b60208210811415620005e557620005e462000621565b5b50919050565b620005f68262000698565b810181811067ffffffffffffffff8211171562000618576200061762000650565b5b80604052505050565b7f4e487b7100000000000000000000000000000000000000000000000000000000600052602260045260246000fd5b7f4e487b7100000000000000000000000000000000000000000000000000000000600052604160045260246000fd5b600080fd5b600080fd5b600080fd5b600080fd5b600080fd5b6000601f19601f8301169050919050565b612c8580620006b96000396000f3fe608060405234801561001057600080fd5b50600436106101215760003560e01c80636871ee40116100ad578063a22cb46511610071578063a22cb465146102e4578063b88d4fde14610300578063c87b56dd1461031c578063e985e9c51461034c578063f2fde38b1461037c57610121565b80636871ee401461026457806370a082311461026e578063715018a61461029e5780638da5cb5b146102a857806395d89b41146102c657610121565b8063095ea7b3116100f4578063095ea7b3146101c257806317d70f7c146101de57806323b872dd146101fc57806342842e0e146102185780636352211e1461023457610121565b8063010a38f51461012657806301ffc9a71461014457806306fdde0314610174578063081812fc14610192575b600080fd5b61012e610398565b60405161013b919061244d565b60405180910390f35b61015e60048036038101906101599190611e84565b6103b2565b60405161016b9190612250565b60405180910390f35b61017c610494565b604051610189919061226b565b60405180910390f35b6101ac60048036038101906101a79190611ede565b610526565b6040516101b991906121e9565b60405180910390f35b6101dc60048036038101906101d79190611e44565b61056c565b005b6101e6610684565b6040516101f3919061244d565b60405180910390f35b61021660048036038101906102119190611d2e565b61068a565b005b610232600480360381019061022d9190611d2e565b6106ea565b005b61024e60048036038101906102499190611ede565b61070a565b60405161025b91906121e9565b60405180910390f35b61026c6107bc565b005b61028860048036038101906102839190611cc1565b6108a0565b604051610295919061244d565b60405180910390f35b6102a6610958565b005b6102b061096c565b6040516102bd91906121e9565b60405180910390f35b6102ce610996565b6040516102db919061226b565b60405180910390f35b6102fe60048036038101906102f99190611e04565b610a28565b005b61031a60048036038101906103159190611d81565b610a3e565b005b61033660048036038101906103319190611ede565b610aa0565b604051610343919061226b565b60405180910390f35b61036660048036038101906103619190611cee565b610bb3565b6040516103739190612250565b60405180910390f35b61039660048036038101906103919190611cc1565b610c47565b005b60006103a46008610ccb565b600a81905550600a54905090565b60007f80ac58cd000000000000000000000000000000000000000000000000000000007bffffffffffffffffffffffffffffffffffffffffffffffffffffffff1916827bffffffffffffffffffffffffffffffffffffffffffffffffffffffff1916148061047d57507f5b5e139f000000000000000000000000000000000000000000000000000000007bffffffffffffffffffffffffffffffffffffffffffffffffffffffff1916827bffffffffffffffffffffffffffffffffffffffffffffffffffffffff1916145b8061048d575061048c82610cd9565b5b9050919050565b6060600080546104a390612672565b80601f01602080910402602001604051908101604052809291908181526020018280546104cf90612672565b801561051c5780601f106104f15761010080835404028352916020019161051c565b820191906000526020600020905b8154815290600101906020018083116104ff57829003601f168201915b5050505050905090565b600061053182610d43565b6004600083815260200190815260200160002060009054906101000a900473ffffffffffffffffffffffffffffffffffffffff169050919050565b60006105778261070a565b90508073ffffffffffffffffffffffffffffffffffffffff168373ffffffffffffffffffffffffffffffffffffffff1614156105e8576040517f08c379a00000000000000000000000000000000000000000000000000000000081526004016105df9061240d565b60405180910390fd5b8073ffffffffffffffffffffffffffffffffffffffff16610607610d8e565b73ffffffffffffffffffffffffffffffffffffffff161480610636575061063581610630610d8e565b610bb3565b5b610675576040517f08c379a000000000000000000000000000000000000000000000000000000000815260040161066c9061238d565b60405180910390fd5b61067f8383610d96565b505050565b600a5481565b61069b610695610d8e565b82610e4f565b6106da576040517f08c379a00000000000000000000000000000000000000000000000000000000081526004016106d19061242d565b60405180910390fd5b6106e5838383610ee4565b505050565b61070583838360405180602001604052806000815250610a3e565b505050565b6000806002600084815260200190815260200160002060009054906101000a900473ffffffffffffffffffffffffffffffffffffffff169050600073ffffffffffffffffffffffffffffffffffffffff168173ffffffffffffffffffffffffffffffffffffffff1614156107b3576040517f08c379a00000000000000000000000000000000000000000000000000000000081526004016107aa906123ed565b60405180910390fd5b80915050919050565b6107c461114b565b6107ce60086111c9565b6107d86008610ccb565b600a819055506107ea33600a546111df565b61089e600a546009600a5481548110610806576108056127dc565b5b90600052602060002001805461081b90612672565b80601f016020809104026020016040519081016040528092919081815260200182805461084790612672565b80156108945780601f1061086957610100808354040283529160200191610894565b820191906000526020600020905b81548152906001019060200180831161087757829003601f168201915b50505050506111fd565b565b60008073ffffffffffffffffffffffffffffffffffffffff168273ffffffffffffffffffffffffffffffffffffffff161415610911576040517f08c379a00000000000000000000000000000000000000000000000000000000081526004016109089061234d565b60405180910390fd5b600360008373ffffffffffffffffffffffffffffffffffffffff1673ffffffffffffffffffffffffffffffffffffffff168152602001908152602001600020549050919050565b61096061114b565b61096a6000611271565b565b6000600760009054906101000a900473ffffffffffffffffffffffffffffffffffffffff16905090565b6060600180546109a590612672565b80601f01602080910402602001604051908101604052809291908181526020018280546109d190612672565b8015610a1e5780601f106109f357610100808354040283529160200191610a1e565b820191906000526020600020905b815481529060010190602001808311610a0157829003601f168201915b5050505050905090565b610a3a610a33610d8e565b8383611337565b5050565b610a4f610a49610d8e565b83610e4f565b610a8e576040517f08c379a0000000000000000000000000000000000000000000000000000000008152600401610a859061242d565b60405180910390fd5b610a9a848484846114a4565b50505050565b6060610aab82610d43565b6000600660008481526020019081526020016000208054610acb90612672565b80601f0160208091040260200160405190810160405280929190818152602001828054610af790612672565b8015610b445780601f10610b1957610100808354040283529160200191610b44565b820191906000526020600020905b815481529060010190602001808311610b2757829003601f168201915b505050505090506000610b55611500565b9050600081511415610b6b578192505050610bae565b600082511115610ba0578082604051602001610b889291906121c5565b60405160208183030381529060405292505050610bae565b610ba984611517565b925050505b919050565b6000600560008473ffffffffffffffffffffffffffffffffffffffff1673ffffffffffffffffffffffffffffffffffffffff16815260200190815260200160002060008373ffffffffffffffffffffffffffffffffffffffff1673ffffffffffffffffffffffffffffffffffffffff16815260200190815260200160002060009054906101000a900460ff16905092915050565b610c4f61114b565b600073ffffffffffffffffffffffffffffffffffffffff168173ffffffffffffffffffffffffffffffffffffffff161415610cbf576040517f08c379a0000000000000000000000000000000000000000000000000000000008152600401610cb6906122ad565b60405180910390fd5b610cc881611271565b50565b600081600001549050919050565b60007f01ffc9a7000000000000000000000000000000000000000000000000000000007bffffffffffffffffffffffffffffffffffffffffffffffffffffffff1916827bffffffffffffffffffffffffffffffffffffffffffffffffffffffff1916149050919050565b610d4c8161157f565b610d8b576040517f08c379a0000000000000000000000000000000000000000000000000000000008152600401610d82906123ed565b60405180910390fd5b50565b600033905090565b816004600083815260200190815260200160002060006101000a81548173ffffffffffffffffffffffffffffffffffffffff021916908373ffffffffffffffffffffffffffffffffffffffff160217905550808273ffffffffffffffffffffffffffffffffffffffff16610e098361070a565b73ffffffffffffffffffffffffffffffffffffffff167f8c5be1e5ebec7d5bd14f71427d1e84f3dd0314c0f7b2291e5b200ac8c7c3b92560405160405180910390a45050565b600080610e5b8361070a565b90508073ffffffffffffffffffffffffffffffffffffffff168473ffffffffffffffffffffffffffffffffffffffff161480610e9d5750610e9c8185610bb3565b5b80610edb57508373ffffffffffffffffffffffffffffffffffffffff16610ec384610526565b73ffffffffffffffffffffffffffffffffffffffff16145b91505092915050565b8273ffffffffffffffffffffffffffffffffffffffff16610f048261070a565b73ffffffffffffffffffffffffffffffffffffffff1614610f5a576040517f08c379a0000000000000000000000000000000000000000000000000000000008152600401610f51906122cd565b60405180910390fd5b600073ffffffffffffffffffffffffffffffffffffffff168273ffffffffffffffffffffffffffffffffffffffff161415610fca576040517f08c379a0000000000000000000000000000000000000000000000000000000008152600401610fc19061230d565b60405180910390fd5b610fd58383836115eb565b610fe0600082610d96565b6001600360008573ffffffffffffffffffffffffffffffffffffffff1673ffffffffffffffffffffffffffffffffffffffff16815260200190815260200160002060008282546110309190612588565b925050819055506001600360008473ffffffffffffffffffffffffffffffffffffffff1673ffffffffffffffffffffffffffffffffffffffff16815260200190815260200160002060008282546110879190612501565b92505081905550816002600083815260200190815260200160002060006101000a81548173ffffffffffffffffffffffffffffffffffffffff021916908373ffffffffffffffffffffffffffffffffffffffff160217905550808273ffffffffffffffffffffffffffffffffffffffff168473ffffffffffffffffffffffffffffffffffffffff167fddf252ad1be2c89b69c2b068fc378daa952ba7f163c4a11628f55a4df523b3ef60405160405180910390a46111468383836115f0565b505050565b611153610d8e565b73ffffffffffffffffffffffffffffffffffffffff1661117161096c565b73ffffffffffffffffffffffffffffffffffffffff16146111c7576040517f08c379a00000000000000000000000000000000000000000000000000000000081526004016111be906123cd565b60405180910390fd5b565b6001816000016000828254019250508190555050565b6111f98282604051806020016040528060008152506115f5565b5050565b6112068261157f565b611245576040517f08c379a000000000000000000000000000000000000000000000000000000000815260040161123c9061236d565b60405180910390fd5b8060066000848152602001908152602001600020908051906020019061126c929190611b45565b505050565b6000600760009054906101000a900473ffffffffffffffffffffffffffffffffffffffff16905081600760006101000a81548173ffffffffffffffffffffffffffffffffffffffff021916908373ffffffffffffffffffffffffffffffffffffffff1602179055508173ffffffffffffffffffffffffffffffffffffffff168173ffffffffffffffffffffffffffffffffffffffff167f8be0079c531659141344cd1fd0a4f28419497f9722a3daafe3b4186f6b6457e060405160405180910390a35050565b8173ffffffffffffffffffffffffffffffffffffffff168373ffffffffffffffffffffffffffffffffffffffff1614156113a6576040517f08c379a000000000000000000000000000000000000000000000000000000000815260040161139d9061232d565b60405180910390fd5b80600560008573ffffffffffffffffffffffffffffffffffffffff1673ffffffffffffffffffffffffffffffffffffffff16815260200190815260200160002060008473ffffffffffffffffffffffffffffffffffffffff1673ffffffffffffffffffffffffffffffffffffffff16815260200190815260200160002060006101000a81548160ff0219169083151502179055508173ffffffffffffffffffffffffffffffffffffffff168373ffffffffffffffffffffffffffffffffffffffff167f17307eab39ab6107e8899845ad3d59bd9653f200f220920489ca2b5937696c31836040516114979190612250565b60405180910390a3505050565b6114af848484610ee4565b6114bb84848484611650565b6114fa576040517f08c379a00000000000000000000000000000000000000000000000000000000081526004016114f19061228d565b60405180910390fd5b50505050565b606060405180602001604052806000815250905090565b606061152282610d43565b600061152c611500565b9050600081511161154c5760405180602001604052806000815250611577565b80611556846117e7565b6040516020016115679291906121c5565b6040516020818303038152906040525b915050919050565b60008073ffffffffffffffffffffffffffffffffffffffff166002600084815260200190815260200160002060009054906101000a900473ffffffffffffffffffffffffffffffffffffffff1673ffffffffffffffffffffffffffffffffffffffff1614159050919050565b505050565b505050565b6115ff8383611948565b61160c6000848484611650565b61164b576040517f08c379a00000000000000000000000000000000000000000000000000000000081526004016116429061228d565b60405180910390fd5b505050565b60006116718473ffffffffffffffffffffffffffffffffffffffff16611b22565b156117da578373ffffffffffffffffffffffffffffffffffffffff1663150b7a0261169a610d8e565b8786866040518563ffffffff1660e01b81526004016116bc9493929190612204565b602060405180830381600087803b1580156116d657600080fd5b505af192505050801561170757506040513d601f19601f820116820180604052508101906117049190611eb1565b60015b61178a573d8060008114611737576040519150601f19603f3d011682016040523d82523d6000602084013e61173c565b606091505b50600081511415611782576040517f08c379a00000000000000000000000000000000000000000000000000000000081526004016117799061228d565b60405180910390fd5b805181602001fd5b63150b7a0260e01b7bffffffffffffffffffffffffffffffffffffffffffffffffffffffff1916817bffffffffffffffffffffffffffffffffffffffffffffffffffffffff1916149150506117df565b600190505b949350505050565b6060600082141561182f576040518060400160405280600181526020017f30000000000000000000000000000000000000000000000000000000000000008152509050611943565b600082905060005b6000821461186157808061184a906126d5565b915050600a8261185a9190612557565b9150611837565b60008167ffffffffffffffff81111561187d5761187c61280b565b5b6040519080825280601f01601f1916602001820160405280156118af5781602001600182028036833780820191505090505b5090505b6000851461193c576001826118c89190612588565b9150600a856118d7919061271e565b60306118e39190612501565b60f81b8183815181106118f9576118f86127dc565b5b60200101907effffffffffffffffffffffffffffffffffffffffffffffffffffffffffffff1916908160001a905350600a856119359190612557565b94506118b3565b8093505050505b919050565b600073ffffffffffffffffffffffffffffffffffffffff168273ffffffffffffffffffffffffffffffffffffffff1614156119b8576040517f08c379a00000000000000000000000000000000000000000000000000000000081526004016119af906123ad565b60405180910390fd5b6119c18161157f565b15611a01576040517f08c379a00000000000000000000000000000000000000000000000000000000081526004016119f8906122ed565b60405180910390fd5b611a0d600083836115eb565b6001600360008473ffffffffffffffffffffffffffffffffffffffff1673ffffffffffffffffffffffffffffffffffffffff1681526020019081526020016000206000828254611a5d9190612501565b92505081905550816002600083815260200190815260200160002060006101000a81548173ffffffffffffffffffffffffffffffffffffffff021916908373ffffffffffffffffffffffffffffffffffffffff160217905550808273ffffffffffffffffffffffffffffffffffffffff16600073ffffffffffffffffffffffffffffffffffffffff167fddf252ad1be2c89b69c2b068fc378daa952ba7f163c4a11628f55a4df523b3ef60405160405180910390a4611b1e600083836115f0565b5050565b6000808273ffffffffffffffffffffffffffffffffffffffff163b119050919050565b828054611b5190612672565b90600052602060002090601f016020900481019282611b735760008555611bba565b82601f10611b8c57805160ff1916838001178555611bba565b82800160010185558215611bba579182015b82811115611bb9578251825591602001919060010190611b9e565b5b509050611bc79190611bcb565b5090565b5b80821115611be4576000816000905550600101611bcc565b5090565b6000611bfb611bf68461248d565b612468565b905082815260208101848484011115611c1757611c1661283f565b5b611c22848285612630565b509392505050565b600081359050611c3981612bf3565b92915050565b600081359050611c4e81612c0a565b92915050565b600081359050611c6381612c21565b92915050565b600081519050611c7881612c21565b92915050565b600082601f830112611c9357611c9261283a565b5b8135611ca3848260208601611be8565b91505092915050565b600081359050611cbb81612c38565b92915050565b600060208284031215611cd757611cd6612849565b5b6000611ce584828501611c2a565b91505092915050565b60008060408385031215611d0557611d04612849565b5b6000611d1385828601611c2a565b9250506020611d2485828601611c2a565b9150509250929050565b600080600060608486031215611d4757611d46612849565b5b6000611d5586828701611c2a565b9350506020611d6686828701611c2a565b9250506040611d7786828701611cac565b9150509250925092565b60008060008060808587031215611d9b57611d9a612849565b5b6000611da987828801611c2a565b9450506020611dba87828801611c2a565b9350506040611dcb87828801611cac565b925050606085013567ffffffffffffffff811115611dec57611deb612844565b5b611df887828801611c7e565b91505092959194509250565b60008060408385031215611e1b57611e1a612849565b5b6000611e2985828601611c2a565b9250506020611e3a85828601611c3f565b9150509250929050565b60008060408385031215611e5b57611e5a612849565b5b6000611e6985828601611c2a565b9250506020611e7a85828601611cac565b9150509250929050565b600060208284031215611e9a57611e99612849565b5b6000611ea884828501611c54565b91505092915050565b600060208284031215611ec757611ec6612849565b5b6000611ed584828501611c69565b91505092915050565b600060208284031215611ef457611ef3612849565b5b6000611f0284828501611cac565b91505092915050565b611f14816125bc565b82525050565b611f23816125ce565b82525050565b6000611f34826124be565b611f3e81856124d4565b9350611f4e81856020860161263f565b611f578161284e565b840191505092915050565b6000611f6d826124c9565b611f7781856124e5565b9350611f8781856020860161263f565b611f908161284e565b840191505092915050565b6000611fa6826124c9565b611fb081856124f6565b9350611fc081856020860161263f565b80840191505092915050565b6000611fd96032836124e5565b9150611fe48261285f565b604082019050919050565b6000611ffc6026836124e5565b9150612007826128ae565b604082019050919050565b600061201f6025836124e5565b915061202a826128fd565b604082019050919050565b6000612042601c836124e5565b915061204d8261294c565b602082019050919050565b60006120656024836124e5565b915061207082612975565b604082019050919050565b60006120886019836124e5565b9150612093826129c4565b602082019050919050565b60006120ab6029836124e5565b91506120b6826129ed565b604082019050919050565b60006120ce602e836124e5565b91506120d982612a3c565b604082019050919050565b60006120f1603e836124e5565b91506120fc82612a8b565b604082019050919050565b60006121146020836124e5565b915061211f82612ada565b602082019050919050565b60006121376020836124e5565b915061214282612b03565b602082019050919050565b600061215a6018836124e5565b915061216582612b2c565b602082019050919050565b600061217d6021836124e5565b915061218882612b55565b604082019050919050565b60006121a0602e836124e5565b91506121ab82612ba4565b604082019050919050565b6121bf81612626565b82525050565b60006121d18285611f9b565b91506121dd8284611f9b565b91508190509392505050565b60006020820190506121fe6000830184611f0b565b92915050565b60006080820190506122196000830187611f0b565b6122266020830186611f0b565b61223360408301856121b6565b81810360608301526122458184611f29565b905095945050505050565b60006020820190506122656000830184611f1a565b92915050565b600060208201905081810360008301526122858184611f62565b905092915050565b600060208201905081810360008301526122a681611fcc565b9050919050565b600060208201905081810360008301526122c681611fef565b9050919050565b600060208201905081810360008301526122e681612012565b9050919050565b6000602082019050818103600083015261230681612035565b9050919050565b6000602082019050818103600083015261232681612058565b9050919050565b600060208201905081810360008301526123468161207b565b9050919050565b600060208201905081810360008301526123668161209e565b9050919050565b60006020820190508181036000830152612386816120c1565b9050919050565b600060208201905081810360008301526123a6816120e4565b9050919050565b600060208201905081810360008301526123c681612107565b9050919050565b600060208201905081810360008301526123e68161212a565b9050919050565b600060208201905081810360008301526124068161214d565b9050919050565b6000602082019050818103600083015261242681612170565b9050919050565b6000602082019050818103600083015261244681612193565b9050919050565b600060208201905061246260008301846121b6565b92915050565b6000612472612483565b905061247e82826126a4565b919050565b6000604051905090565b600067ffffffffffffffff8211156124a8576124a761280b565b5b6124b18261284e565b9050602081019050919050565b600081519050919050565b600081519050919050565b600082825260208201905092915050565b600082825260208201905092915050565b600081905092915050565b600061250c82612626565b915061251783612626565b9250827fffffffffffffffffffffffffffffffffffffffffffffffffffffffffffffffff0382111561254c5761254b61274f565b5b828201905092915050565b600061256282612626565b915061256d83612626565b92508261257d5761257c61277e565b5b828204905092915050565b600061259382612626565b915061259e83612626565b9250828210156125b1576125b061274f565b5b828203905092915050565b60006125c782612606565b9050919050565b60008115159050919050565b60007fffffffff0000000000000000000000000000000000000000000000000000000082169050919050565b600073ffffffffffffffffffffffffffffffffffffffff82169050919050565b6000819050919050565b82818337600083830152505050565b60005b8381101561265d578082015181840152602081019050612642565b8381111561266c576000848401525b50505050565b6000600282049050600182168061268a57607f821691505b6020821081141561269e5761269d6127ad565b5b50919050565b6126ad8261284e565b810181811067ffffffffffffffff821117156126cc576126cb61280b565b5b80604052505050565b60006126e082612626565b91507fffffffffffffffffffffffffffffffffffffffffffffffffffffffffffffffff8214156127135761271261274f565b5b600182019050919050565b600061272982612626565b915061273483612626565b9250826127445761274361277e565b5b828206905092915050565b7f4e487b7100000000000000000000000000000000000000000000000000000000600052601160045260246000fd5b7f4e487b7100000000000000000000000000000000000000000000000000000000600052601260045260246000fd5b7f4e487b7100000000000000000000000000000000000000000000000000000000600052602260045260246000fd5b7f4e487b7100000000000000000000000000000000000000000000000000000000600052603260045260246000fd5b7f4e487b7100000000000000000000000000000000000000000000000000000000600052604160045260246000fd5b600080fd5b600080fd5b600080fd5b600080fd5b6000601f19601f8301169050919050565b7f4552433732313a207472616e7366657220746f206e6f6e20455243373231526560008201527f63656976657220696d706c656d656e7465720000000000000000000000000000602082015250565b7f4f776e61626c653a206e6577206f776e657220697320746865207a65726f206160008201527f6464726573730000000000000000000000000000000000000000000000000000602082015250565b7f4552433732313a207472616e736665722066726f6d20696e636f72726563742060008201527f6f776e6572000000000000000000000000000000000000000000000000000000602082015250565b7f4552433732313a20746f6b656e20616c7265616479206d696e74656400000000600082015250565b7f4552433732313a207472616e7366657220746f20746865207a65726f2061646460008201527f7265737300000000000000000000000000000000000000000000000000000000602082015250565b7f4552433732313a20617070726f766520746f2063616c6c657200000000000000600082015250565b7f4552433732313a2061646472657373207a65726f206973206e6f74206120766160008201527f6c6964206f776e65720000000000000000000000000000000000000000000000602082015250565b7f45524337323155524953746f726167653a2055524920736574206f66206e6f6e60008201527f6578697374656e7420746f6b656e000000000000000000000000000000000000602082015250565b7f4552433732313a20617070726f76652063616c6c6572206973206e6f7420746f60008201527f6b656e206f776e6572206e6f7220617070726f76656420666f7220616c6c0000602082015250565b7f4552433732313a206d696e7420746f20746865207a65726f2061646472657373600082015250565b7f4f776e61626c653a2063616c6c6572206973206e6f7420746865206f776e6572600082015250565b7f4552433732313a20696e76616c696420746f6b656e2049440000000000000000600082015250565b7f4552433732313a20617070726f76616c20746f2063757272656e74206f776e6560008201527f7200000000000000000000000000000000000000000000000000000000000000602082015250565b7f4552433732313a2063616c6c6572206973206e6f7420746f6b656e206f776e6560008201527f72206e6f7220617070726f766564000000000000000000000000000000000000602082015250565b612bfc816125bc565b8114612c0757600080fd5b50565b612c13816125ce565b8114612c1e57600080fd5b50565b612c2a816125da565b8114612c3557600080fd5b50565b612c4181612626565b8114612c4c57600080fd5b5056fea2646970667358221220048b9b40940150f130dab9955632098bf17307da175db747806315a820533f9e64736f6c63430008070033",
  "devdoc": {
    "kind": "dev",
    "methods": {
      "approve(address,uint256)": {
        "details": "See {IERC721-approve}."
      },
      "balanceOf(address)": {
        "details": "See {IERC721-balanceOf}."
      },
      "getApproved(uint256)": {
        "details": "See {IERC721-getApproved}."
      },
      "isApprovedForAll(address,address)": {
        "details": "See {IERC721-isApprovedForAll}."
      },
      "name()": {
        "details": "See {IERC721Metadata-name}."
      },
      "owner()": {
        "details": "Returns the address of the current owner."
      },
      "ownerOf(uint256)": {
        "details": "See {IERC721-ownerOf}."
      },
      "renounceOwnership()": {
        "details": "Leaves the contract without owner. It will not be possible to call `onlyOwner` functions anymore. Can only be called by the current owner. NOTE: Renouncing ownership will leave the contract without an owner, thereby removing any functionality that is only available to the owner."
      },
      "safeTransferFrom(address,address,uint256)": {
        "details": "See {IERC721-safeTransferFrom}."
      },
      "safeTransferFrom(address,address,uint256,bytes)": {
        "details": "See {IERC721-safeTransferFrom}."
      },
      "setApprovalForAll(address,bool)": {
        "details": "See {IERC721-setApprovalForAll}."
      },
      "supportsInterface(bytes4)": {
        "details": "See {IERC165-supportsInterface}."
      },
      "symbol()": {
        "details": "See {IERC721Metadata-symbol}."
      },
      "tokenURI(uint256)": {
        "details": "See {IERC721Metadata-tokenURI}."
      },
      "transferFrom(address,address,uint256)": {
        "details": "See {IERC721-transferFrom}."
      },
      "transferOwnership(address)": {
        "details": "Transfers ownership of the contract to a new account (`newOwner`). Can only be called by the current owner."
      }
    },
    "version": 1
  },
  "userdoc": {
    "kind": "user",
    "methods": {},
    "version": 1
  },
  "storageLayout": {
    "storage": [
      {
        "astId": 138,
        "contract": "contracts/MintNFT.sol:MintNFT",
        "label": "_name",
        "offset": 0,
        "slot": "0",
        "type": "t_string_storage"
      },
      {
        "astId": 140,
        "contract": "contracts/MintNFT.sol:MintNFT",
        "label": "_symbol",
        "offset": 0,
        "slot": "1",
        "type": "t_string_storage"
      },
      {
        "astId": 144,
        "contract": "contracts/MintNFT.sol:MintNFT",
        "label": "_owners",
        "offset": 0,
        "slot": "2",
        "type": "t_mapping(t_uint256,t_address)"
      },
      {
        "astId": 148,
        "contract": "contracts/MintNFT.sol:MintNFT",
        "label": "_balances",
        "offset": 0,
        "slot": "3",
        "type": "t_mapping(t_address,t_uint256)"
      },
      {
        "astId": 152,
        "contract": "contracts/MintNFT.sol:MintNFT",
        "label": "_tokenApprovals",
        "offset": 0,
        "slot": "4",
        "type": "t_mapping(t_uint256,t_address)"
      },
      {
        "astId": 158,
        "contract": "contracts/MintNFT.sol:MintNFT",
        "label": "_operatorApprovals",
        "offset": 0,
        "slot": "5",
        "type": "t_mapping(t_address,t_mapping(t_address,t_bool))"
      },
      {
        "astId": 1126,
        "contract": "contracts/MintNFT.sol:MintNFT",
        "label": "_tokenURIs",
        "offset": 0,
        "slot": "6",
        "type": "t_mapping(t_uint256,t_string_storage)"
      },
      {
        "astId": 7,
        "contract": "contracts/MintNFT.sol:MintNFT",
        "label": "_owner",
        "offset": 0,
        "slot": "7",
        "type": "t_address"
      },
      {
        "astId": 1934,
        "contract": "contracts/MintNFT.sol:MintNFT",
        "label": "_tokenIds",
        "offset": 0,
        "slot": "8",
        "type": "t_struct(Counter)1588_storage"
      },
      {
        "astId": 1937,
        "contract": "contracts/MintNFT.sol:MintNFT",
        "label": "_allTokenURIs",
        "offset": 0,
        "slot": "9",
        "type": "t_array(t_string_storage)dyn_storage"
      },
      {
        "astId": 1939,
        "contract": "contracts/MintNFT.sol:MintNFT",
        "label": "tokenId",
        "offset": 0,
        "slot": "10",
        "type": "t_uint256"
      }
    ],
    "types": {
      "t_address": {
        "encoding": "inplace",
        "label": "address",
        "numberOfBytes": "20"
      },
      "t_array(t_string_storage)dyn_storage": {
        "base": "t_string_storage",
        "encoding": "dynamic_array",
        "label": "string[]",
        "numberOfBytes": "32"
      },
      "t_bool": {
        "encoding": "inplace",
        "label": "bool",
        "numberOfBytes": "1"
      },
      "t_mapping(t_address,t_bool)": {
        "encoding": "mapping",
        "key": "t_address",
        "label": "mapping(address => bool)",
        "numberOfBytes": "32",
        "value": "t_bool"
      },
      "t_mapping(t_address,t_mapping(t_address,t_bool))": {
        "encoding": "mapping",
        "key": "t_address",
        "label": "mapping(address => mapping(address => bool))",
        "numberOfBytes": "32",
        "value": "t_mapping(t_address,t_bool)"
      },
      "t_mapping(t_address,t_uint256)": {
        "encoding": "mapping",
        "key": "t_address",
        "label": "mapping(address => uint256)",
        "numberOfBytes": "32",
        "value": "t_uint256"
      },
      "t_mapping(t_uint256,t_address)": {
        "encoding": "mapping",
        "key": "t_uint256",
        "label": "mapping(uint256 => address)",
        "numberOfBytes": "32",
        "value": "t_address"
      },
      "t_mapping(t_uint256,t_string_storage)": {
        "encoding": "mapping",
        "key": "t_uint256",
        "label": "mapping(uint256 => string)",
        "numberOfBytes": "32",
        "value": "t_string_storage"
      },
      "t_string_storage": {
        "encoding": "bytes",
        "label": "string",
        "numberOfBytes": "32"
      },
      "t_struct(Counter)1588_storage": {
        "encoding": "inplace",
        "label": "struct Counters.Counter",
        "members": [
          {
            "astId": 1587,
            "contract": "contracts/MintNFT.sol:MintNFT",
            "label": "_value",
            "offset": 0,
            "slot": "0",
            "type": "t_uint256"
          }
        ],
        "numberOfBytes": "32"
      },
      "t_uint256": {
        "encoding": "inplace",
        "label": "uint256",
        "numberOfBytes": "32"
      }
    }
  }
}